:020000040000FA
:0600000002010A022ADBE6
:03002B00022F5C45
:03003300022F3E5B
:03003B00022F751C
:03004300022EF298
:03005300022B4E2F
:03006B00022F1849
:1000830002298FE5C754F84401F5C779012200001E
:100093000080FB120086B900030200F4E4792178A2
:1000A30008B800028004F709D8FCE479297802B87B
:1000B30000028004F709D8FCE490028178087913E0
:1000C3008002F0A3D8FCD9FA901488AA82AB83905B
:1000D300013A787879048015E493A3AC82AD838ADE
:1000E300828B83F0A3AA82AB838C828D83D8E9D9D8
:1000F300E775826F7583D3740412011C7582917541
:100103008300740012011C75D00075813F7518813E
:10011300751902759F00020096C09FF59FE473D086
:100123009F22D083D082C09FE493C0E0740193C028
:10013300E0740293F59F222B063D0667063106FF06
:100143000000B4000028002800283075A000A0009B
:10015300A000A00000080008E001F000100010005B
:10016300100010001000100050005000500010004C
:100173001000D0070000000000000F000100050080
:10018300307507001000010081FF0000FFAB07C9B5
:1001930007B107FF02020208025000A0000000E8B6
:1001A30003028F830100007783028983010000E546
:1001B30014028583010000B702028983010000E66F
:1001C30014028383010000CD02028983010000E74A
:1001D30014029783010000CF02028983010000E823
:1001E30014029D83080000D002028983010000E904
:1001F3001402A783010000EA14FFFF0100FF20029D
:100203008F8301000071830289830100004F15026F
:10021300C1830000000000028783030000B103F5DF
:100223000EF50EF50EF50EF50EF50EF50EF50EF5B3
:100233000EF50EF50EF50EF50EF3101111ED10314E
:100243001249122B12FFFF020202020202020202F1
:10025300010D0000001001028F830100007D830265
:100263008983010000981502AD83010000710E021D
:100273008983010000991502AB83010000FB810211
:1002830089830100009A1502A983010000E081021D
:1002930089830100009B1502A5830100004F8102A1
:1002A30089830100009C1502A383010000198102C8
:1002B30089830100009D1502A1830100003D810295
:1002C30089830100009E15029F830100002B810298
:1002D30089830100009F15029B83010000D28102E4
:1002E3008983010000A015029983010000A1150173
:1002F300E803053F1002FF00013075030201060009
:1003030000000000000000000000000000000000EA
:100313000000000000000000000000FFFF06008056
:100323000CE803FEFF01010201060302F0FF0201D4
:10033300061AFF4C000215E2C56DB5DFFB48D2B0CB
:1003430060D0F5A71096E000010002CD9B17A1171E
:10035300AD17B317A7170A436861726163746572B7
:100363006973746963203100024368617261637465
:10037300657269737469632032000843686172614E
:100383006374657269737469632033001043686131
:100393007261637465726973746963203400024324
:1003A300686172616374657269737469632035008F
:1003B300164368617261637465726973746963205B
:1003C3003600028F830100007A83028983010000D3
:1003D300A71602B583030000311402C38301000092
:1003E300A816028983010000B91602B78301000031
:1003F300321402C383010000BA160289830100008C
:10040300CB1602B983020000331402C38301000038
:10041300CC16028983010000DD1602BB83000000B5
:100423003414028783030000351402C383010000E0
:10043300DE16028983010000EF1602BD830400006B
:10044300411402C383010000F016028983010000F6
:10045300011702BF830300004614028783030000D1
:100463005B1402C383010000021730313233343589
:100473003637383941424344454600286E756C6C23
:1004830020706F696E74657229003F3F3F00000062
:10049300807F0000803FF9021550B743BA51000036
:1004A300204100E7DB2E0000A040080000001201FD
:1004B3002531CA0412012547CA0412012574CA044E
:1004C300120125A4CA04120125C5CA04120125F686
:1004D300CA0412012547CB041201255ECB04120185
:1004E30025D4C304120125EBC3041201251AC40445
:1004F30012012553C4041201257BC404120125A94A
:10050300C404120125C0C404120125D7C404120176
:1005130025EDC40412012514C50412012527C504C1
:100523001201253DC50412012550C504120125758C
:10053300C504120125EF8C03120125EE8D03120170
:1005430025188E031201256D8E031201258E8E034D
:10055300120125A78E03120125A98E03120125CAB4
:100563008E03120125CD8F031201258A90031201F8
:1005730025579103120125BB9103120125529203C2
:10058300120125559203120125DB92031201251E48
:100593009303120125709303120125A793031201FC
:1005A300252D9403120125B69403120125FF94030C
:1005B3001201250C95031201250F95031201256DD8
:1005C3009503120125859503120125FF9503120159
:1005D3002502960312012525960312012528960369
:1005E300120125CF9603120125F296031201250A63
:1005F30097031201253A9703120125479703120126
:10060300254A9703120125B69703120125A49803DF
:100613001201255A99031201256DB0031201254DCC
:10062300B103120125CDB103120125EDB10312016E
:10063300252BB2031201257EB203120125E6B20374
:1006430012012577B30312012542B4031201255188
:10065300B703120125BDB803120125E0B803120147
:1006630025F7AB0412012588AD04120125D9AD0489
:1006730012012538AE0412012546AE041201256F7E
:10068300AE041201259D8F04120125C58F041201AA
:1006930025F38F041201252A900412012592900458
:1006A300120125DB90041201252691041201256411
:1006B3009104120125A19104120125CF9104120185
:1006C300257692041201258092041201258D92044D
:1006D300120125C092041201258293041201258E72
:1006E3009304120125A69304120125B09304120169
:1006F300252E9404120125A4CE04120125B2CE04A2
:10070300120125CACE04120125E2CE04120125FAF4
:10071300CE0412012519BE02120125B7BE02120131
:10072300252FBF0212012544C0021201257EC002FB
:1007330012012527C102120125FCC1021201256005
:10074300C302120125B7C3021201253EC4021201DE
:100753002525C50212012572C50212012500C60214
:1007630012012524C602120125F9C7021201253AF6
:10077300C8021201255CC802120125DDC80212015C
:1007830025C7C9021201258DCA02120125C2CC0256
:10079300120125C6E00312012598E1031201254148
:1007A300E20312012584E20312012511E30312017E
:1007B300259DE3031201257EE403120125ADE40325
:1007C300120125A9E503120125F1E503120125F321
:1007D300E60312012537E7031201255DE703120142
:1007E30025E3D104120125D3A004120125E9A004B5
:1007F3001201250FA10412012537A204120125417C
:10080300A2041201259AA3041201259AA404120139
:1008130025A4A404120125778A04120125AC8B04B4
:10082300120125DF8B04120125298C04120125E70F
:100833008D0412012572E801120125F0E80112016D
:100843002500E901120125E3E90112012511EA015D
:100853001201251CEA0112012506EB01120125A252
:10086300EB01120125A6ED011201255DEF01120135
:1008730025D9EF01120125B6F001120125E4F30198
:1008830012012582F401120125DFF501120125521F
:10089300F701120125FBF70112012544F8011201AA
:1008A300257BF80112012520F9011201259EF9018A
:1008B300120125E19F0212012536A0021201257BB8
:1008C300A1021201258BA102120125AEA102120180
:1008D30025F9A1021201259EA20212012594A30269
:1008E3001201255EA402120125D6A50212012518C4
:1008F300A602120125B6A60212012503A7021201C0
:100903002529A70212012517A9021201251CA902F4
:10091300120125FDAA0212012551AB02120125B3D2
:10092300AB02120125DBAB021201257FAC021201DF
:100933002541AD0212012572AD0212012575AD02EA
:10094300120125BDAD02120125FFAD02120125667C
:10095300AE02120125D5BB04120125E8BB04120126
:1009630025F1BB041201250ABC0412012555BC0460
:1009730012012530BD04120125BFBD041201250A51
:10098300BE0412012553A20112012563A201120123
:1009930025C6A2011201250BA301120125BBA30148
:1009A3001201258FA401120125F7A40112012520AC
:1009B300A50112012550A50112012564A701120109
:1009C3002540A90112012520AB0112012558AC01D4
:1009D300120125D1AE01120125BDAF01120125037C
:1009E300B10112012510B20112012552B201120107
:1009F300258AB201120125A4B2011201250CB3010B
:100A0300120125A6B70112012547B8011201259B42
:100A1300B801120125C2B80112012500B901120162
:100A2300251FB90112012573B9011201254CBA0121
:100A3300120125D3BB011201255CBC011201253231
:100A4300D2031201253CD203120125D8D20312018D
:100A5300259FD303120125BED303120125E4D3033B
:100A630012012523D4031201255BD403120125842B
:100A7300D40312012501D50312012516D503120152
:100A8300252BD50312012553D5031201258DD5033B
:100A9300120125B1D5031201257AD603120125903F
:100AA300D603120125A3D603120125B8D6031201DA
:100AB300254AD70312012584D703120125B5D7038D
:100AC300120125E1D70312012525D803120125952B
:100AD300D803120125E9D80312012532D9031201E3
:100AE300255CD90312012581D9031201250199043B
:100AF300120125CB9904120125AE9A041201252473
:100B03009B04120125669B04120125939C04120188
:100B13002530AF0212012559AF0212012572AF022F
:100B2300120125B7B00212012595B102120125B4B5
:100B3300B10212012541B20212012584B20212014F
:100B430025BCB30212012528B4021201251EB602E8
:100B5300120125ACB8021201253FB9021201251377
:100B6300BA02120125B6BA02120125A0BB02120174
:100B7300250CBD02120125A2BD0212012575CB046D
:100B8300120125DECB0412012532CC0412012559B2
:100B9300CC041201258ACC04120125FDFA031201AB
:100BA300256AFB03120125B5FB03120125AAFC03E9
:100BB300120125A6FD0312012590FE03120125B79C
:100BC300F602120125F9F602120125D3F7021201EA
:100BD30025ACF802120125A7F90212012586FA02B3
:100BE300120125F2FA02120125D4FB021201253F5C
:100BF300FC02120125A6FC02120125A9FC02120126
:100C030025D4FC0212012545FD02120125D8FD025F
:100C130012012541FE0212012556FE021201259EF4
:100C2300FE02120125B7FE021201251CFF0212016A
:100C3300251FFF0212012587AF04120125C3AF044C
:100C430012012501B004120125CBB0041201253E87
:100C5300B10412012579B104120125B7B1041201BF
:100C630025E7B1041201250EB20412012579B2045D
:100C7300120125BBB204120125C155001201251B27
:100C83005800120125F85A00120125D35B00120106
:100C9300251E5C00120125695C001201257B5C00A6
:100CA300120125BB5C00120125F05C001201253CFA
:100CB3005D001201256B5D001201258E5D0012019E
:100CC30025155E00120125015F00120125AA6100AE
:100CD300120125956300120125D863001201253BFB
:100CE30065001201257C65001201257E6600120154
:100CF300255A68001201250F6900120125A9690010
:100D0300120125F46E001201253A6F0012012578B5
:100D13006F00120125AB7100120125B87300120197
:100D23002588740012012534BE04120125D4BF04A2
:100D3300120125C59903120125F09903120125D744
:100D4300A003120125FBA203120125B6A40312017D
:100D53002513A603120125E02F0012012577300089
:100D6300120125BD3000120125F3310012012518AF
:100D73003200120125AF330012012529340012017C
:100D8300256D3400120125E23400120125113600CD
:100D9300120125713700120125733800120125DC79
:100DA30039001201252C3A00120125973B0012014C
:100DB30025013E00120125DD3E00120125F63E000D
:100DC300120125533F00120125723F0012012591A4
:100DD3003F00120125943F001201251A4100120120
:100DE300250F42001201250B4300120125F2430097
:100DF30012012525440012012595440012012507FF
:100E03004500120125814500120125CB4500120141
:100E130025A64600120125704700120125774800D8
:100E2300120125564900120125E149001201254FFF
:100E33004A00120125C34A00120125EC4A0012019F
:100E430025AB4B00120125BA4E00120125034F00BA
:100E5300120125464F00120125C94F001201256DCD
:100E63005000120125FE50001201252351001201EA
:100E7300256D5100120125955100120125DA51000B
:100E8300120125555200120125AF5200120125030C
:100E93005400120125C0540012012593550012017C
:100EA3002559DB02120125A9DB02120125B5DB025C
:100EB30012012592DC02120125C2DC02120125FA7D
:100EC300DC0212012579DD02120125B1DD021201D6
:100ED3002503DE0212012540DE0212012565E00230
:100EE30012012591E2021201258CE4021201256709
:100EF300E602120125D52F0012012538F503120150
:100F0300256AF903120125BAFA031201254F90024B
:100F1300120125219702120125279702120125D7D5
:100F23009902120125008004120125AC80041201EC
:100F3300257A8104120125A48104120125F2830478
:100F4300120125C583011201250F84011201250316
:100F530093011201258494011201257C950112014C
:100F630025DB9B01120125D69C01120125139D014E
:100F7300120125369D01120125789D01120125815B
:100F83009D011201258B9D01120125779E011201FE
:100F9300256B9F0112012504A001120125C3BC0189
:100FA3001201253BC70112012541C7011201254D3D
:100FB300CE0112012503B30412012501B404120169
:100FC3002557B40412012595B404120125F2B40483
:100FD3001201256FB50412012578B5041201258489
:100FE300B50412012597B504120125D3B5041201E6
:100FF30025E9B504120125C8EE03120125D5EE0338
:10100300120125EFEE031201252EEF031201256CC9
:10101300EF03120125D1EF03120125E6EF031201BD
:1010230025F1EF03120125FEEF0312012515F0034D
:1010330012012523F00312012532F0031201254783
:10104300F0031201255CF00312012567F00312017E
:101053002573F00312012580F0031201258FF0039D
:101063001201259AF003120125BFF003120125682E
:10107300F10312012578F1031201258DF103120109
:1010830025A2F103120125BCF103120125D7F103B7
:10109300120125F4F103120125FFF103120125BB0F
:1010A300F203120125A7F303120125CCF303120166
:1010B30025D6F303120125EAF30312012509F403EC
:1010C3001201256AF40312012570F4031201257637
:1010D300F4031201257CF40312012588F4031201A1
:1010E30025BBF40312012536A60312012562A603CC
:1010F30012012546A703120125E0A903120125F6D3
:10110300AA0312012513AC03120125B6AC03120185
:10111300255CAD031201252DE902120125AFE90279
:1011230012012558EA02120125A0EB02120125AE95
:10113300ED0212012594EE02120125C9EE021201FD
:1011430025EBEE0212012594EF0212012564F10250
:101153001201258DF10212012505F2021201253734
:10116300F20212012544F2021201258FF20212014A
:1011730025B3F20212012504F5021201250EF6022F
:101183001201256AF602120125D1CC02120125E2D1
:10119300CD02120125C6CE02120125D0CE021201C4
:1011A30025DACE02120125FCCE0212012508CF0258
:1011B300120125ACD002120125D9D002120125EF6C
:1011C300D10212012544D20212012593D302120146
:1011D3002568D402120125C4D4021201252FD50299
:1011E30012012564D502120125A7D502120125712A
:1011F300D80212012589D8021201251AD902120137
:101203002528D90212012575D90212012583D90295
:10121300120125EFD9021201256ADA02120125C152
:10122300DA02120125B27400120125D474001201EE
:1012330025E57600120125A47900120125CE7A0056
:101243001201258C7B00120125787C001201251BDD
:10125300C20412012540C204120125B6C2041201C0
:1012630025A9D903120125B2D903120125BBD9033C
:1012730012012593DA0312012544DC0312012574BC
:10128300DC031201259FDC03120125CFDC031201CD
:1012930025FADC031201252EDD031201255ADD0395
:1012A3001201259DDD03120125C8DD031201250F5F
:1012B300DE0312012564DE03120125A6DE031201FB
:1012C3002500DF031201252BDF031201257ADF033B
:1012D300120125AADF03120125D5DF03120125031D
:1012E300E00312012526E003120125F2D2041201C4
:1012F300251ED3041201254BD30412012555D30413
:1013030012012565D30412012518BA0312012522FF
:10131300BA0312012563BA03120125ACBA03120101
:1013230025E6BA031201253CBB031201255DBB036D
:101333001201250CBE0312012515BE0312012569F6
:10134300BE0312012592BE031201259CBE031201A6
:10135300250ABF031201259ABF03120125F5BF0316
:1013630012012523C003120125ABC003120125EA94
:10137300C0031201251FC10312012531C10312014C
:10138300255DC10312012566C10312012528C2038D
:10139300120125ADCD041201252AC00412012560D6
:1013A300C00412012594C004120125E1C1041201F5
:1013B30025EAD30412012500D4041201250AD4041A
:1013C300120125CDD004120125BF9404120125D2A8
:1013D3009404120125969504120125D59504120152
:1013E30025F295041201252B960412012578960403
:1013F300120125AA9604120125E19604120125F48F
:10140300980412012558D1041201251FC7041201A3
:101413002542C70412012571C70412012509C80416
:1014230012012521C80412012563C80412012552A3
:10143300FA0112012594FA011201251BFB01120185
:101443002570FB01120125B5FB0112012564FC0186
:10145300120125BFFC011201250EFD0112012568B1
:10146300FD0112012575FE011201256DFF01120117
:1014730025AAFF0112012519B6041201253EB6045F
:1014830012012568B6041201256CD2041201250845
:10149300D30112012506D501120125D3D60112016C
:1014A3002580D70112012500D80112012585D80115
:1014B300120125AED80112012594DD011201250B7D
:1014C300DE0112012522DF011201255CDF01120179
:1014D300259DDF01120125E4E00112012513E1013D
:1014E30012012569E101120125B2E1011201251E54
:1014F300E20112012592E201120125C0E20112016B
:1015030025D8E201120125F1E30112012501E401CD
:10151300120125BAE501120125D1E50112012503C6
:10152300E601120125A0E70112012534E8011201A9
:101533002543FF0212012554FF0212012554D4044E
:1015430012012593D404120125FBD404120125337F
:10155300D00412012543D0041201255BD0041201EB
:1015630025C3D004120125ABCC0412012530CD04D0
:1015730012012594CD04120125ACC804120125D50E
:10158300C80412012540C90412012591C90412019E
:1015930025ECC904120125F4FF02120125F7FF020D
:1015A300120125AEA404120125C5A4041201253F8E
:1015B300A50412012523A604120125FAA70412018A
:1015C300255FA804120125F4A8041201256EA904BD
:1015D30012012504AA041201258FAA041201252051
:1015E300AB041201252EAB04120125AEAB0412018C
:1015F30025C1AB04120125D7AB04120125E1AB04CD
:10160300120125F4AB0412012552FF03120125D761
:10161300FF03120125E2FF03120125F2FF0312016A
:101623002587C504120125D9C5041201254CC6041A
:10163300120125B9C604120125FDB804120125279C
:10164300B904120125F6B904120125D2BA04120114
:101653002563BB0412012556C20312012522C303CD
:1016630012012563C3031201259DC303120125FB48
:10167300C3031201254FC403120125ADC403120194
:101683002543C5031201254BC603120125D5C70304
:1016930012012573C803120125DAC803120125EDCF
:1016A300C803120125E1C9031201252ACA03120145
:1016B30025008003120125328303120125C384030D
:1016C3001201251A8503120125378503120125B757
:1016D30085031201253387031201250288031201B2
:1016E300256F8B03120125598C03120125ED9C04F0
:1016F300120125599D04120125E09D04120125F2D2
:101703009D041201259E9E04120125C39E0412010D
:1017130025EC9E041201251D9F04120125209F0420
:10172300120125629F04120125719F041201257C79
:101733009F04120125839F0412012565A004120151
:10174300256FA00412012584A00412012599A00489
:101753001201258CCA0312012591CB03120125BB6B
:10176300CB03120125D8CC0312012557CD03120157
:101773002562CD0312012557D0031201255AD00348
:101783001201255DD0031201258AD103120125D24E
:10179300E703120125B5EB031201253CEC0312010B
:1017A3002534ED0312012537ED03120125B9ED03AD
:1017B30012012536EE031201253D8504120125761B
:1017C3008504120125938504120125E28604120182
:1017D30025828704120125AC8804120125358A0469
:1017E300120125D07F0012012593CF04120125BDDC
:1017F300CF041201259DD404120125D3D404120170
:1018030025E2FF011201250080021201251E850237
:10181300E066701008A3E066700A08A3E06670042F
:1018230008A3E06622C008C3E096F50808A3E09683
:10183300420808A3E096420808A3E0964208A2D211
:1018430065D033E5087001D3D00822C3E7960809B1
:10185300E7960809E7960809E79622C3E09608A3E6
:10186300E09608A3E09608A3E09622C008C3E0969A
:10187300F50808A3E096420808A3E096420808A3E7
:10188300E09645087001D3D00822080808E630E73F
:10189300111221491218A5080808C64480C6181851
:1018A3001822181818E9799EC608CAC608CBC608B4
:1018B300CCC6C370207996CACBCC7019798ECBCCA9
:1018C30070137986CC700EF9802ACA33CACB33CB16
:1018D300CC33CC331930E7F2CCCBCA335014700479
:1018E300EA30E00DE4CA3ACACB3BCBCC3CCC500245
:1018F30009C3E913C6CC182313C6CB18C6CA18C626
:10190300F92212194520F01430E72B74FFFCFBFA7F
:10191300747F8022E4FCFBFA7480801AB48008BCD4
:1019230000F2BB00EF800F50EBF9E4C39AFAE49B9B
:10193300FBE49CFCE499C6CC18C6CB18C6CA18C6EF
:10194300F922E4C9C608CAC608CBC6D3330308CCF8
:10195300C63392F0C3947F402E94184019C9B90737
:1019630004CACBCC225025C309CA33CACB33CBCC50
:1019730033CC33D9F422F4600DC9CCC313CB13CBCE
:10198300CA13CAD9F6CC22E4FCFBFA2214FCFBFAF4
:1019930022E6C33318461846184622E7C3331947CD
:1019A3001947194722181818E6084608700AE60866
:1019B300C3337005E633F4220822191919E70947DE
:1019C30009700AE709C3337005E733F4220922E6F5
:1019D300084608C3134608336002E633F422E709D6
:1019E3004709C3134709336002E733F4221219D2BC
:1019F30060251219E16020121994700302199E08E0
:101A03000808E76670101819E766700A1819E76680
:101A130070041819E76622F4221219D2601C1219F5
:101A2300E16017121994700712199E7001D322C036
:101A3300D012199E7006D0D0B322C32233D0D05017
:101A43001430E0F6C3E7960809E7960809E7960815
:101A530009E796B32220E0D5E6970809E697080937
:101A6300E6970809E697B3221219D2601B1219E10F
:101A73006016121994700712199E600CB322C0D01D
:101A830012199E7005D0D022C32233D0D050133008
:101A9300E0EBC3E7960809E7960809E7960809E724
:101AA300962220E0E4E6970809E6970809E69708F6
:101AB30009E69722001219D2604F1219E16012E76A
:101AC300548066F61219A8701112199E703B090909
:101AD30009F4F618F618F618F6221219BD70151245
:101AE300199408080860EAE6447FF618768018E43B
:101AF300F618F622121994601612199E7012E4F663
:101B030008F608F608E65480F60909091818182299
:101B1300EAC0E0EBC0E0ECC0E0EDC0E0E687F0A493
:101B2300FBACF008E687F0A42CFCE435F0FA1809C6
:101B3300E687F0A42C4B60027401CA35F0FCE43351
:101B4300FB09E687F0D2F7A42CCB35F0FC1908E6A5
:101B530087F0A42BCC35F0FBE433FD0819E687F0BE
:101B6300D2E7A42C4ACB35F0CD3400FC09E687F04C
:101B7300D2E7A42DCC35F0FDE433FA0918E687F05B
:101B8300D2F7A42CCD35F0CA3400FC08E687F0D296
:101B9300E7D2F7A42ACC35F07A7E20E70B0ACB33C1
:101BA300CBCD33CDCC33CC33CB3350147004ED30A9
:101BB300E00ED2F1E4CD3DCDCC3CCC3B5005DA0573
:101BC300C2F1EB547FC63308E63392F0FBE73309E7
:101BD300E733C39A502D2B70190C0D4C4D7015180B
:101BE30006E608C333700D20F10AA2F013F6E418D9
:101BF300800B4024E4F630F002768018F618F618CD
:101C0300F68024D33B14501074FFA2F013F6187619
:101C130080E418F618F6800FA2F013F618E63303E3
:101C2300F618ECF618EDF6D0E0FDD0E0FCD0E0FBC2
:101C3300D0E0FA221219E160461219D2603DE96838
:101C43007008F618F618F618F622748067F7121C57
:101C53006B090909748067F7221219D2601D1219E2
:101C6300E17005191919801A1219A8701F1219BDEC
:101C7300C37003E6673319191940071818182208A7
:101C8300080874FFF618F618F618F6221219BD6044
:101C93001712199E702192F012199470195017207F
:101CA300F014080808090909E7F61819E7F61819DE
:101CB300E7F61819E7F62212199460E6E869701F2F
:101CC3000808E62480F608E436F618547FB47F0C3F
:101CD300E654806007F6E418F618F622181822E98D
:101CE300C6CC08C6CD08C6CE08C6CFC0E0E8C0E063
:101CF300EAC0E0EBC0E009E9F809E7FA09E7FBE627
:101D0300F918E6F8C3EC98ED99EE9AEBC2E7F5F013
:101D1300EFC2E795F0500E600CEBCFFBEACEFAE989
:101D2300CDF9E8CCF8EAA2E7D2E7FAEB33FB13F5F7
:101D3300F0EEA2E7D2E7FEEF33FFC5F013A2E730E0
:101D4300E601B313C5F0C3C0E0C0F07F00C39BFB43
:101D5300605B9418600C401AD0E023F9D0E0F802DD
:101D63001E3A8AF0E9486003D2F0E4AFF0FAF9F8DA
:101D7300803BEB30E40D89F0EA6003D2F0E4AFF08E
:101D8300F9CAF8EB30E30D88F0EF6002D2F0AFF060
:101D9300E4CAC9F8EB54076014FBC3EA13FAE91366
:101DA300F9E813F8EF135002D2E0FFDBEDD0E0C007
:101DB300E030E739C3E49FFFF5F0EC98FC42F0ED27
:101DC30099FD42F0EE9AFE42F0D0E0F9D0E0F8E55A
:101DD300F0607AE923F9EE20E742D8028067C3EF87
:101DE30033FFEC33FCED33FDEE33FE80EAEC28FCED
:101DF300ED39FDEE3AFED0E023F9D0E0F840028061
:101E03001BC3EE13FEED13FDEC13FCEF135002D2D4
:101E1300E0FF08B800067F7F74FF802EEF33501772
:101E23008CF020F00260100CBC000C0DBD00080EFD
:101E3300BE000408E860DFE933E813FFEE2313FE76
:101E43004F4D4C8008E95480FFE4FEFDFCEE33EF78
:101E530033F47004FCFD7E80D0E0FBD0E0FAD0E0E8
:101E6300F8D0E0CFC618CEC618CDC618CCC6F92216
:101E73001219D27004181818221219E1700D74FF88
:101E8300F61819F61819F61819F622E7548066F6AB
:101E9300121994700F12199E70F014F608F608F6D2
:101EA30008F680D112199E700CF608F608768008A1
:101EB300E6447F80EC1219C0700C1219AB60BFE6C8
:101EC3005480F6E480BB1219AB700519191980A56B
:101ED300E869700C763F18768018F618F6E8F92250
:101EE300E6CDC0E018ECC0E0E633CD33CDD313F636
:101EF300E719FCE7191933CC33C3947F400ECD9D0A
:101F0300502408E65480F6E418F6800FF4043D14D8
:101F1300501408E6447FF6187680E418F618F6D0D5
:101F2300E0FCD0E0FD22CCD313CCFD18E4C6CBC03B
:101F3300E018E4C6CAC0E00808ED08C633E613F6A5
:101F430018E433C675F003C3CA97CA09CB97CB19F4
:101F53009C40047D08802EBD000302201C16B6FFA2
:101F6300050606081618C3CA33CACB33CB33CA27B0
:101F7300CA09CB37CB193CC37D08803E187D0820A6
:101F8300E75CC633C6CA33CACB33CB33DDF1D5F0F6
:101F9300EB30E77BCA97CA09CB974ACB199C406FB2
:101FA3004B7025E620E0218066187D08C3CA97CAD6
:101FB30009CB97CB199CD3C633C6CA33CACB33CB11
:101FC3003350C9DDE7D5F0E1D3E4C636C608C636DB
:101FD300C608C636C608C636C61818188031C3CA1E
:101FE30097CA09CB97CB199CB34097C633C6CA335C
:101FF300CACB33CB33DD34D5F02EC6A2E0C640C8FE
:10200300CA27CA09CB37194A70BECB3CB480B9087A
:1020130008E63308E633601F181818D0E0FAD0E05A
:10202300FBD0E0FCD0E0FD22187D08CA27CA09CB0B
:1020330037CB193CD3808013F618E4B67F11F6181A
:10204300B6FF0EF618C60470D20808768080CAF66A
:1020530018F618F680C5080808EAC0E0EBC0E08669
:10206300F0E7A4FA180986F0E7A42AFA180986F01B
:10207300E7A42AFA180986F0E7A42AFA1986F0E7F2
:10208300A4FBE5F02AFA190886F0E7A42BFBE5F098
:102093003AFA190886F0E7A42BFBE5F03AFA181888
:1020A3000986F0E7A4C5F02BFBE43AFA1908E7C563
:1020B300F0C6A426F6E5F03BFBE43AFA1886F0E70F
:1020C300A4F6E5F00826F6E43B08F6E43A08F6D071
:1020D300E0FBD0E0FA22E4CFC0E0E4CEC0E0E4CD00
:1020E300C0E0E4CCC0E075F020C3E633F608E63385
:1020F300F608E633F608E633F6181818EC33FCED69
:1021030033FDEE33FEEF33FFC3EC9709ED9709EE92
:102113009709EF97191919400FFFEC97FC09ED97F1
:10212300FD09EE97FE191906D5F0BEECF709EDF798
:1021330009EEF709EFF7191919D0E0FCD0E0FDD04B
:10214300E0FED0E0FF22181818E4C396F608E496E0
:10215300F608E496F608E496F6226016080808C620
:10216300C313C618C613C618C613C618C613C6D5D6
:10217300E0EA227009080808226016181818C6C376
:1021830033C608C633C608C633C608C633C6D5E049
:10219300EA22E627F60809E637F60809E637F608DD
:1021A30009E637F622E026F608A3E036F608A3E0B0
:1021B30036F608A3E036F622E026F008A3E036F070
:1021C30008A3E036F008A3E036F022C3E697F6084A
:1021D30009E697F60809E697F60809E697F622C393
:1021E300E096F008A3E096F008A3E096F008A3E0D9
:1021F30096F022E657F60809E657F60809E657F679
:102203000809E657F622E056F608A3E056F608A3B7
:10221300E056F608A3E056F622E056F008A3E0568F
:10222300F008A3E056F008A3E056F022E066F608B3
:10223300A3E066F608A3E066F608A3E066F622E0EC
:10224300F608A3E0F608A3E0F608A3E0F622E6F01A
:1022530008A3E6F008A3E6F008A3E6F022E0FAA359
:10226300E0FBA3E0FCA3E0FD22EAF0A3EBF0A3EC88
:10227300F0A3EDF022CAC0E0E6F0A308DAFAD0E05A
:10228300FA22CAC0E0E0A3C582CCC582C583CDC50E
:1022930083F0A3C582CCC582C583CDC583DAE6D0DE
:1022A300E0CA22C3E498F8E499F91222E78026C32E
:1022B300E49AFAE49BFBE920E7E91222E7E498F8C1
:1022C300E499F922C3E498F8E499F91222E7E4982F
:1022D300F8E499F9C3E49AFAE49BFB22EB20E7CFF5
:1022E300E920E7E0B90010BB0008E88AF084F8AA07
:1022F300F022E4FBC8FA22EB70227B10C833C8C972
:1023030033C9335007C39AC3DBF280069A50012ABC
:10231300DBEAC833F4C8C933F4C9FA2275F008E418
:10232300C833C8C933C933C99AC99B5004C92AC918
:102333003BD5F0ECFBC833F4C8E4C9FA22600D08BE
:10234300C6A2E713C618C613C6D5E0F322600C086D
:10235300C6C313C618C613C6D5E0F42270042260A0
:102363000D18C6C333C608C633C6D5E0F4182225F4
:102373001810AF08F518400215198008F518400227
:102383001519D2AF22C0D0251810AF08F518500286
:1023930005198008F51850020519D2AFD0D02225AF
:1023A30018F58210AF08F518400215198008F518C2
:1023B30040021519D2AF851983222518F582E43519
:1023C30019F58322E4732518C582C0E0E51934FFAB
:1023D300C583C0E0E518C3958224F810AF08858350
:1023E300198582188008858319858218D2AFCEF0AB
:1023F300A3E520F0A37808E608F0A3DEFAEFF0A344
:10240300E58124FAF8E608F0A3E608F0A3E608F06D
:10241300A30808E608F0A3E608F0A315811581D008
:10242300E0FED0E0F8158115811581E8C0E0EEC02B
:10243300E0222518C582C0E0E51934FFC583C0E05A
:10244300E518C3958224F910AF088583198582188E
:102453008008858319858218D2AFCEF0A3E520F0DA
:10246300A37808E608F0A3DEFAEFF0A3E58124FBE6
:10247300F8E608F0A3E608F0A30808E608F0A3E6E8
:1024830008F0A315811581D0E0FED0E0F815811581
:1024930081E8C0E0EEC0E022851983851882E0A3BD
:1024A300FEE0A3F5207808E0A3F608DFFAE0A3FF37
:1024B300E0A3C0E0E0A3C0E0E0A3C0E0E0A3C0E08D
:1024C300E0A3C0E010AF08858218858319800885D2
:1024D3008218858319D2AFD083D082020122851955
:1024E30083851882E0A3FEE0A3F5207808E0A3F635
:1024F30008DFFAE0A3FFE0A3C0E0E0A3C0E0E0A3AD
:10250300C0E0E0A3C0E010AF08858218858319807E
:1025130008858218858319D2AFD083D08222C0D098
:102523002518C582C0E0E51934FFC583C0E0E5186E
:10253300C3958224F310AF08858319858218800818
:10254300858319858218D2AFC8F0A3E9F0A3EAF016
:10255300A3EBF0A37908E709F0A3D8FAECF0A3ED15
:10256300F0A3EEF0A3EFF0A3D0E0F0A3D0E0F0A34C
:10257300D0E0F0A3E520F0A3E5F0F0A322851983D2
:10258300851882E0C0E0A3E0F9A3E0FAA3E0FBA38F
:102593007808E0F608A3DFFAE0FCA3E0FDA3E0FE81
:1025A300A3E0FFA3E0C0E0A3E0C0E0A3E0F5D0A375
:1025B300E0F520A3E0A3F5F010AF08858319858229
:1025C300188008858319858218D2AFD082D083D032
:1025D300E0F8D0E03274048006740280027401C013
:1025E300E0F4041223A2D0E01222782274048004BF
:1025F30074028000CCC0E0EDC0E0E518C39CCCAD14
:102603001950011D10AF068C188D1980068C188D7A
:1026130019D2AF122285D0E0FDD0E0FC22D083D0C6
:1026230082E9C0E0E493A3C386F0C5F095F0F9080E
:10263300E493A386F0C5F095F0700BE493A3C399DC
:102643004005E9048002A3E475F002A42582F58223
:10265300E5F03583F583D0E0F9E493A3C0E0E49398
:10266300C0E022D083D082ECC0E0EDC0E0E493A3CD
:10267300FCE493A3FDED4C600D1226B2EC24FFFCA9
:10268300ED34FFFD80EFE493A3FCE493A3FDED4C55
:10269300600D1226F1EC24FFFCED34FFFD80EFD03A
:1026A300E0FDD0E0FCE493A3C0E0E493C0E022C0EB
:1026B300E0C3E49396087401939618400FE493667D
:1026C300700808740193661870007019A3A3C3E41B
:1026D3009396087401939618A3A3400DD0E0D0E01D
:1026E300D0E00226A2A3A3A3A3A3A3D0E022C0E029
:1026F300C0F088F0E493667008087401936618705C
:1027030000A8F0A3A3700BD0F0D0E0D0E0D0E0029B
:1027130026A2A3A3D0F0D0E02274F5122435EAFE5A
:10272300EBFFEE2434F8EF3400F988088909EE242E
:1027330035F582EF3400F583E0F8EE2437F582EFC8
:102743003400F583E0F50AEC850AF0A4FCAAF085D1
:102753000AF0EDA42AFDE82CF8E43DF97A257B0084
:102763001222E7EA850882850983F05407F8740189
:10277300B800028004C333D8FCC0E0E01313135441
:102783001FF8EE28F8EF3400F9E8245DF582E93408
:1027930000F583D0E0F8E0586008EE2434F582EFCA
:1027A300801EEE2436F582EF3400F583E0F5F0EA7F
:1027B30084A8F0EE28F8EF3400F9E82438F582E92C
:1027C3003400F583E0F97F040224E174F512243523
:1027D300EAFEEBFFEE2434F582EF3400F583E0C02C
:1027E300E0EE2435F582EF3400F583D0E0F08E82FD
:1027F3008F83A3A3A3A3A3A3A3C082C0838E828F2B
:1028030083A3A3A3A3A3E0F8A3E0F9D083D082E03A
:10281300C398F508A3E099F509EE2480F582EF3417
:1028230000F583E064017069EE2481F582EF3400E2
:10283300F583E0F8A3E0F98E828F83A3A3A3A3A378
:10284300A3A3E0FCA3E0FD8E828F83A3A3A3A3A392
:10285300E0FAA3E0FBC3EA9CEB9D5027C3EC98EDA1
:1028630099402EC3EA98EB9950277CF07D07EEFA46
:10287300EFFB120E3BEE2480F582EF3400F583E488
:10288300F0800EC3EA98EB9940E0C3EC98ED9950C1
:10289300D9EE2434F8EF3400F9E8FCE9FDEE2435F1
:1028A300F582EF3400F583E0F8EE2437F582EF3458
:1028B30000F583E0F50AE508850AF0A4F508AAF017
:1028C300850AF0E509A42AF509E82508F8E435099D
:1028D300F97A257B001222E7EA8C828D83F0540774
:1028E300F87401B800028004C333D8FCC0E0E013DD
:1028F3001313541FF8EE28F8EF3400F9E8245DF5BC
:1029030082E93400F583D0E0F8E0586008EE24341F
:10291300F582EF801EEE2436F582EF3400F583E076
:10292300F5F0EA84A8F0EE28F8EF3400F9E824384B
:10293300F582E93400F583E0F9122EE40227C9C0D9
:1029430082C083851882851983E0F8A3E0F9C3EA7E
:102953009CEB9D5012C3EC98ED994019C3EA98EB98
:1029630099501279018010C3EA98EB9940F5C3ECB2
:1029730098ED9950EE7900D083D08222EAC39CFA75
:10298300EB9DFB22008521878522C622C0E0C0D0B3
:10299300E8C0E0E9C0E0EAC0E0EBC0E0ECC0E0ED95
:1029A300C0E0C008C009C00AC00BC082C083C0F029
:1029B300759B00906182E0A2E64003022A6DE591D7
:1029C300A2E64003022A6D7591BF9004A7E0640557
:1029D3007008120FD3120FDF8003120FD975210075
:1029E300121045E99004A8F07900121027120D6324
:1029F3007A017B009004A6E0F9121369907803E052
:102A030064426003022AB690087CE014F06003027B
:102A13002AB6C2AF122A1A00782AD0E0F618D0E0FC
:102A2300F6E59F5407F97005908339800390835529
:102A33007808122242E9C4C0E07829E65508F5086F
:102A430008E65509F509740B7808122350D0E025E0
:102A530008F8906270E0A2E740F8E8C3339062722E
:102A6300F0906270E0D2E0F08049E0A2E55024E506
:102A730091A2E5501E7591DF9004A7E0640D7013D9
:102A83009004C9E004F064287002E4F07A00E0F9ED
:102A93001210DB906181E0A2E35009E5E9A2E35063
:102AA3000375E9F7A3E0A2E75009E591A2E7500314
:102AB30075917FD0F0D083D082D00BD00AD009D0CB
:102AC30008D0E0FDD0E0FCD0E0FBD0E0FAD0E0F9A4
:102AD300D0E0F8D0D0D0E032C0E0C0D0C082C08314
:102AE300906183E0A2E05009E5BFA2E0500375BF07
:102AF300FEE0A2E15009E5BFA2E1500375BFFDE08E
:102B0300A2E25009E5BFA2E2500375BFFBE0A2E3D6
:102B13005009E5BFA2E3500375BFF7E0A2E45009F3
:102B2300E5BFA2E4500375BFEFE0A2E55009E5BF9E
:102B3300A2E5500375BFDFE0A2E65009E5BFA2E6B8
:102B4300500375BFBFD083D0828088C0E0C0D0E877
:102B5300C0E0E9C0E0EAC0E0EBC0E0ECC0E0EDC0FB
:102B6300E0C0F0E5A7A2E6500FE5A1A2E6500953A5
:102B7300A7BF75A1BF122BB3E5A7A2E5500CE5A132
:102B8300A2E5500653A7DF75A1DFE5A7A2E150092F
:102B9300E5A1A2E1500375A1FDE5A7A2E2500CE572
:102BA300A1A2E2500653A7FB75A1FBD0F0022AC4F1
:102BB30074F81224357521019004A7E0640670159A
:102BC300120F6D8A828B83A3A3A3A3A3A3E0FAA30B
:102BD300E0FB120FC1A2AFE433FED2AF9004ADE02D
:102BE300640170187A207B009004A6E0F91213EDBB
:102BF3007A207B009004A6E0F912136F906182E0C3
:102C0300D2E6F090087BE0602185C622801690040E
:102C1300ACE064017008E5C654F84405F5C653BE3C
:102C2300FC1229887401652160E4EEA2E092AF7F73
:102C3300010224E1008E238F248582288583278542
:102C43001882851983E0CEA3E0CF85288285278368
:102C5300EBC9EAC8EDCBECCA75F010C3E833C8E999
:102C630033C9EA33CAEB33CBC3EA9EF526EB9FF5B0
:102C730025B35004AB25AA26EC33CCED33CDD5F0E8
:102C8300DAAE23AF242274F11224358A088B098C1F
:102C93000A8D0B740F1223BD780C122242908369A4
:102CA3007808122209908369780C1222097808792E
:102CB3000C12184E50157808790C1221CE90830D02
:102CC300780812186E401579018013780C79081270
:102CD30021CE90830D780C12186E40EB79007F089B
:102CE3000224E174ED1224358A088B098C0A8D0BBA
:102CF30074131223BD780C12224290836978081250
:102D03002209908369780C122209780C7908121829
:102D13004E40117808790C1221CEAA08AB09AC0AEF
:102D2300AD0B80227510007511007512007513012B
:102D33007810790C1221CE78107908122195AA10F7
:102D4300AB11AC12AD137F0C0224E19083697808B8
:102D53001222428A828B83780812221C7F04022467
:102D6300E174F51224358C828D8378081222428A0D
:102D7300828B8378081221E2EA2404F8EB3400F909
:102D83008C828D83A3A3A3A3E0FCA3E0FD888289A7
:102D930083C3E09CF0A3E09DF088828983C3E09421
:102DA30020A3E0944E402290831D78081222428A89
:102DB300828B8378081221BB8A828B83A3A3A3A36C
:102DC300E02420F0A3E0344EF0808074F512243523
:102DD300E9FE900807E0FAA3E0FBEEC333F8E4331F
:102DE300F9747228F582748139F583E02AF508A312
:102DF300E03BF50978081225DC9083191222601252
:102E03002C3874021223888A088B098C0A8D0B7460
:102E130010780812215DAA08AB097F040224E1742B
:102E2300F11224358A0C8B0D8C0E8D0F740F122327
:102E3300BDE0FAA3E0FB74111223BDE0F508A3E0A3
:102E4300F50974131223BDE0FEA3E0FF78081225F1
:102E5300DCEA2401F508EB3400F509E4F50AF50B87
:102E6300780C79081220599082E978081222427866
:102E73000C7908122059AA0CAB0DAC0EAD0F122C15
:102E83003874021223888B09EA450960047A0180A9
:102E9300027A00EC2AFCED3400FDECF8EDF97A71CE
:102EA3007B021222E788088909E4F50AF50B8E8272
:102EB3008F837808122251ECF8EDF97A717B0212B4
:102EC30022E78A088B097405780812235F8E828FA4
:102ED30083A3A3A3A3E508F0A3E509F07F080224D5
:102EE300E1C082C083E9906000F0D083D08222C029
:102EF300E074F2122521A2AFE433FED2AFC2C0E5E3
:102F0300D1A2E4500653D1EF121603EEA2E092AF22
:102F13007F01022580C0E074F2122521A2AFE433C1
:102F2300FED2AFE589A2E15003121591758900C263
:102F3300C5EEA2E092AF7F01022580C0E074F212D9
:102F43002521A2AFE433FED2AFE58BA2E0500312FA
:102F53001591758B00C2E880D8C0E0C0D0E8C0E00E
:102F6300E5A8D2AFC2C7A2E792AFD0E0F8D0D0D0E5
:102F7300E032C0E0C0D0E8C0E0E9C0E0C008C0096A
:102F8300C082C083A2AFE433F9D2AF90127DE0F8E0
:102F9300A3E0687009539AFBA37401F0801CC2E993
:102FA30090127DE0F50874012508F0747D2508F57D
:102FB3008274113400F583E0F5C1E9A2E092AFD049
:102FC30083D082D009D008D0E0F9D0E0F8D0D0D0B7
:102FD300E032020122FFFFFFFFFFFFFFFFC082C0BD
:102FE300839061907404F0A37448F0A37402F0908A
:102FF30061807440F09061BC7403F0906187741930
:10300300F0906265741BF090619C740DF090619A6E
:103013007433F0A37455F09061A0743AF09008797A
:10302300E064017009C2919004AB74678005900459
:10303300AB7461F0902FDEE493906186F0902FD80B
:10304300E493F46027E493540FF8906185E068609B
:1030530012E5C654804449F5C6E59E547F64497021
:10306300F8E8F053C680E59E547F70FA7905121094
:10307300BD0239D5C082C083E5A8F853A87E90610C
:1030830081E4F0A3F0A3F0C2BA539AFEC289759B00
:1030930000C2C275E90075910075BF0075A911756D
:1030A300B905906181F0A374C0F0A3E4F0D2BA43F0
:1030B3009A0174805842A80239D5C082C08374F83B
:1030C3001223729004A9E0F8A3E0F9E8497003021F
:1030D30031EB9004A9E05440602379088518828578
:1030E3001983AA82AB83120EAD851882851983AA30
:1030F30082AB83120AD59004A9E054BFF0E0548058
:103103006010790C7A9D7B08120EAD9004A9E054EF
:103113007FF0E0A2E0503190619A7433F0A37455CC
:10312300F09061A0743AF0900879E064017009C2EC
:10313300919004AB746780059004AB7461F0120A3C
:10314300DB9004A9E054FEF0E05402603190619AF0
:10315300743FF0A3745AF09061A0747FF0900879E3
:10316300E064017009D2919004AB747180059004FE
:10317300AB746AF0120ADB9004A9E054FDF0E0544A
:10318300046013902FDCE493906186F0120AE190BF
:1031930004A9E054FBF0E054086013902FDDE4939E
:1031A300906186F0120AE19004A9E054F7F0E0542C
:1031B300106013902FDEE493906186F0120AE19081
:1031C30004A9E054EFF0E05420600A120AE19004ED
:1031D300A9E054DFF0A3E05401600D120D75120A4B
:1031E300E79004AAE054FEF074081223880239D54C
:1031F300C082C083E9600814600A14600C801390D5
:103203002FDC8008902FDD8003902FDEE493906104
:1032130086F00239D574EC1223C974F41223728533
:103223001882851983AC82AD837583827582F574A8
:1032330004122285902FDC93F460030233A5907867
:1032430008E0C39402500302338574041223BDAC17
:1032530082AD8375838275828674081222858518F0
:103263008285198385821285831374041223BDAC6E
:1032730082AD83750EFF750FFF7FFF7E00750C48CF
:10328300750D78801574086E700302331874096E17
:103293007003023318740A6E607B850C82850D837C
:1032A30078081222428C828D83A909E50AC9F8881D
:1032B300107418780812215DE5104508F8C3E098EA
:1032C300A3E099850C82850D837808122242401869
:1032D3008C828D837418780812215DE5104508F8F7
:1032E300E0C398F8A3E0801C7418780812215DE508
:1032F300104508FAE9FB8C828D83E0F8A3E0F9EA34
:10330300C398F8EB99F9C3E8950EE9950F50068831
:103313000E890FEEFF0EE50C2404F50CE50D3400C9
:10332300F50DEEC39413500302328874FF650E70DB
:103333000474FF650F60238F087402780812235FFB
:1033430074482508F58274783509F58378081222C4
:1033530042851282851383E508F0EC24020C0CED00
:103363003400FD851282851383A38582128583131E
:10337300740C1223BDE5826C7003E5836D60030258
:10338300327675080175090078081225DC7402127B
:1033930023BDAC82AD837AF77B0B12156D740212D9
:1033A3002388740C1223887F0C02249BC082C08361
:1033B3009061AE7468F0A3746AF090624574FBF098
:1033C300A304F053F4FD43FE029008797401F090D6
:1033D30061A0E0643A90619A70237433F0A374554A
:1033E300F09061A0743AF0740164017009C2919085
:1033F30004AB746780289004AB74618021743FF040
:10340300A3745AF09061A0747FF074016401700991
:10341300D2919004AB747180059004AB746A023747
:103423006D7F0402249BC082C083900857E064012F
:10343300701590085DE064016009E0700AA3E06420
:10344300017004790C802090086EE064017008908C
:103453000874E0640160EC900801E0640170069078
:103463000806E070DE79000239D5C082C08375E1B9
:10347300F1900804E0605514600814605914605119
:103483008059120D879007FAE0F97AFB7B07121037
:10349300099082F912226012105790834912226018
:1034A300121015900805E0F912102179011210B1DC
:1034B3009007F8E02416F8A3E03400F988828983A2
:1034C30074B7F0A3740DF079000239D5120D8D8015
:1034D300B4120D9380AF120D9980AA791280EA7409
:1034E300F41223C975D90D9007E9E0A2E0E4331380
:1034F30013F89007FAE0C4333354C0484401F5D9B4
:1035030078F8790788828983A3A3A3E0F5D9888211
:103513008983A3A882A983E864FE7003E964077022
:10352300E378E9790788828983A3E0F5D9888289DA
:1035330083A3A882A983E864EF7003E9640770E5B5
:1035430075E1959007E9E0F97AEA7B0712100F908D
:1035530015707433F0A3740DF0A374F5F0A3740E17
:10356300F0A374F5F0A3740EF0A374F5F0A3740E36
:10357300F0A37439F0A3740DF0A374F5F0A3740EE3
:10358300F0A37451F0A3740DF090157E74F5F0A3BD
:10359300740EF0A374F5F0A3740EF0A374F5F0A306
:1035A300740EF0A374F5F0A3740EF0A374F5F0A3F6
:1035B300740EF0A374F5F0A3740EF09007F8E0F81E
:1035C300A3E0F5838882A3A378081222429082D9CC
:1035D30078081221A890836978081222099007F8C5
:1035E300E0240EF8A3E03400F98882898378081276
:1035F30022519007F8E02414F8A3E03400F98882FC
:1036030089837413F09004A77402F0023424C082F7
:10361300C08390080AE02407F5D99007FAE0C43381
:103623003354C0F5D978F8790788828983A3A3A393
:10363300E0F5D988828983A3A882A983E864FE7010
:1036430003E9640770E390080AE0601F78F87907DC
:10365300FAE82413F582E93400F583E0F5D988828A
:103663008983A3A882A9831AEA70E690082AE02432
:1036730007F5D99007FAE0C4333354C04404F5D9AD
:1036830078F8790788828983A3A3A3E0F5D9888290
:103693008983A3A882A983E864FE7003E9640770A1
:1036A300E390082AE0601F78F87907FAE82433F5F5
:1036B30082E93400F583E0F5D988828983A3A8825F
:1036C300A9831AEA70E675E195901570743FF0A32B
:1036D300740DF0A374F5F0A3740EF0A374F5F0A3C6
:1036E300740EF0A374F5F0A3740EF0A37439F0A371
:1036F300740DF0A374F5F0A3740EF0A37451F0A34A
:10370300740DF090157E74F5F0A3740EF0A374F5A8
:10371300F0A3740EF0A374F5F0A3740EF0A374F584
:10372300F0A3740EF0A374F5F0A3740EF0A374F574
:10373300F0A3740EF090831D1222609007F8E0242A
:103743000EF8A3E03400F98882898312226C900773
:10375300F8E02414F8A3E03400F988828983741212
:10376300F09004A774018002F0A3F00239D5C0825F
:10377300C08390080AE02407F5D99007FAE0C43320
:103783003354C04402F5D978F8790788828983A332
:10379300A3A3E0F5D988828983A3A882A983E864D7
:1037A300FE7003E9640770E390080AE0601F78F88D
:1037B3007907FAE82413F582E93400F583E0F5D9B3
:1037C30088828983A3A882A9831AEA70E675E195A2
:1037D300901570744BF0A3740DF0A3744BF0A374A5
:1037E3000DF0A3744BF0A3740DF0A3744BF0A3740A
:1037F3000DF0A3744BF0A3740DF0A3744BF0A374FA
:103803000DF0A37451F0A3740DF090157E74F5F0D0
:10381300A3740EF0A374F5F0A3740EF0A374F5F083
:10382300A3740EF0A374F5F0A3740EF0A374F5F073
:10383300A3740EF0A374F5F0A3740EF090831D121D
:1038430022609007F8E0240EF8A3E03400F98882A0
:10385300898312226C9007F8E02414F8A3E0340063
:10386300F9888289837414F09004A7740402376D75
:10387300C082C08390080AE02407F5D99007FAE0D4
:10388300C4333354C04406F5D978F879078882895C
:1038930083A3A3A3E0F5D988828983A3A882A983FC
:1038A300E864FE7003E9640770E390080AE0601FB0
:1038B30078F87907FAE82413F582E93400F583E010
:1038C300F5D988828983A3A882A9831AEA70E6902E
:1038D300082AE02407F5D99007FAE0C4333354C02B
:1038E3004404F5D978F8790788828983A3A3A3E0F0
:1038F300F5D988828983A3A882A983E864FE70032B
:10390300E9640770E390082AE0601F78F87907FA02
:10391300E82433F582E93400F583E0F5D988828918
:1039230083A3A882A9831AEA70E675E195901570BE
:103933007445F0A3740DF0A374F5F0A3740EF0A313
:1039430074F5F0A3740EF0A374F5F0A3740EF0A352
:1039530074F5F0A3740EF0A374F5F0A3740EF0A342
:103963007451F0A3740DF090157E74F5F0A3740EEA
:10397300F0A374F5F0A3740EF0A374F5F0A3740E22
:10398300F0A374F5F0A3740EF0A374F5F0A3740E12
:10399300F0A374F5F0A3740EF090831D12226090CF
:1039A30007F8E0240EF8A3E03400F9888289831233
:1039B300226C9007F8E02414F8A3E03400F988821D
:1039C30089837415F09004A7740302376DE0F9122C
:1039D3002EE4D083D082020122C082C0839008618A
:1039E3007425F090085F7401F0A3E4F07A01FB12F0
:1039F300103390084DE02416F8A3E03400F98882D0
:103A0300898374C3F0A3740DF090085EE0640170C1
:103A13001690085DE070107901121099121063126C
:103A2300109379001210A580A9C082C08374FA1282
:103A33002372900856E064017008120D9F90085697
:103A4300E4F075E1F190084DE02415F8A3E03400AB
:103A5300F9888289837401F0900858E064017076D4
:103A63009082B3C082851882851983AC82AD837539
:103A73008382D082740612228575D90D90084FE097
:103A8300C4333354C04403F5D9784D790888828907
:103A930083A3A3A3E0F5D988828983A3A882A983FA
:103AA300E864537003E9640870E385188285198319
:103AB300A882A98388828983E0F5D9A3A882A983F0
:103AC30074061223BDE582687003E5836970E575AA
:103AD300E1957901800279001210399015707425EF
:103AE300F0A3740FF0A3742BF0A3740FF0A3742549
:103AF300F0A3740FF0A37425F0A3740FF0A374F56F
:103B0300F0A3740EF0A374F5F0A3740EF0A3743154
:103B1300F0A3740FF090157E74F5F0A3740EF0A368
:103B230074F5F0A3740EF0A374F5F0A3740EF0A370
:103B330074F5F0A3740EF0A374F5F0A3740EF0A360
:103B430074F5F0A3740EF090084FE0F97A507B08F7
:103B5300121009900861E0F9122EE4790112103F66
:103B63009082F91222601210579083491222601238
:103B7300101579001210B190084DE02414F8A3E059
:103B83003400F9888289837416F09004A77405F0D1
:103B9300040231ED74F71223C98908A808E875F007
:103BA30006A4C8AAF02AF974D728FE740439FF9032
:103BB3000866E0F97A677B08121009900874E070D0
:103BC3001A790012107B9007E9E0700B79007AEA0A
:103BD3007B0712100F8009790180F3790112107BA2
:103BE30075E1F175D923900866E0C4333354C044BA
:103BF30005F5D97864790888828983A3A3A3E0F5BE
:103C0300D988828983A3A882A983E8646A7003E9B7
:103C1300640870E375D90075D90075D90075D900AA
:103C230075D90075D900EEF8EFF9E82404FAE93400
:103C330000FBE82422F582E93400F583E0F5D98816
:103C4300828983A3A882A983EA687002EB6970E280
:103C5300EEF8EFF9E824031AE93400FBE82426F52B
:103C630082E93400F583E0F5D988828983A3A882A9
:103C7300A983EA687002EB6970E2EE242BF582EF08
:103C83003400F583E0F5D9EEF8EFF9E824021AE9F8
:103C93003400FBE8242CF582E93400F583E0F5D900
:103CA30088828983A3A882A983EA687002EB69707A
:103CB300E2EEF8EFF9E8242EF582E93400F583E02B
:103CC300F5D988828983A3A882A983EA687002EB65
:103CD3006970E2EEF8EFF9E82430F582E93400F593
:103CE30083E0F5D988828983A3A882A983EA6870CF
:103CF30002EB6970E2EEF8EFF9E82432F582E93479
:103D030000F583E0F5D988828983A3A882A983EA91
:103D1300687002EB6970E2EEF8EFF9E824050A0A2D
:103D23000AE93400FBE8245DF582E93400F583E019
:103D3300F5D988828983A3A882A983EA687002EBF4
:103D43006970E2EE2437F582EF3400F583E0541F07
:103D5300F8EE242AF582EF3400F583E0C43354E00F
:103D630048F5D975E19590157074FBF0A3740EF0C6
:103D7300A37401F0A3740FF0A374F5F0A3740EF011
:103D8300A374F5F0A3740EF0A374F5F0A3740EF00E
:103D9300A374F5F0A3740EF0A37407F0A3740FF0EB
:103DA30090157E74F5F0A3740EF0A374F5F0A3746C
:103DB3000EF0A374F5F0A3740EF0A374F5F0A374DE
:103DC3000EF0A374F5F0A3740EF0A374F5F0A374CE
:103DD3000EF0900873E0F9122EE49082F91222603B
:103DE30012105790834912226012101590600DE44F
:103DF300F079011210B19004A774060243EC74EC3D
:103E03001223C9900864E0F8A3E0F5838882A3A392
:103E13007810122242900875E0FAF875F006A4C8EB
:103E2300ACF02CF9740528F582740539F583E0FEAE
:103E3300A3E0FFEEC333FEEF33FF8E0CF50D750EDB
:103E430000750F0085100885110985120A85130B6B
:103E53009082DD78081221A878081225D8851008E9
:103E630085110985120A85130B7808790C1221959F
:103E73007810790C1220D9E4F50EF50F7808790C37
:103E83001221CE8A0C750D007403780C12235F780F
:103E930008790C1221959083697808122209AA08DF
:103EA300AB09AC0AAD0B122CE674041223888A0802
:103EB3008B09A808A909C3EE98EF995006E82EF8D4
:103EC300E93FF9E890600EF0E9A3F0EEA3F0EFA369
:103ED300F090600D74C1F00233AAC082C0839007D2
:103EE300F8E0F8A3E0F5838882A3A3A3A3A3A3E444
:103EF30002376B74F71223C99004D5E0F875F00606
:103F0300A4C8AAF02AF974D728F8740439F9E82464
:103F130005FAE93400FB8A828B83E0FCA3E0FD8889
:103F2300828983A3A3A3A3A3A3A3A3A3ECF0A3EDD9
:103F3300F088828983A3A3A3A3A3A3A3E024FFF808
:103F4300A3E034FFF98A828B83E8F0A3E90243EC10
:103F5300C082C08390084DE0F8A3E0F5838882A374
:103F6300A3A3A3A3A3E4F0A3F09008610239D0C0F4
:103F730082C083900864E0F8A3E0F5838882A3A35A
:103F8300A3A3A3A3E4F0A3F09008730239D0020122
:103F93002274F61223C99061D0E0F87480C398FCB0
:103FA300EA2483F582EB3400F583E060047804802F
:103FB300027800E8240EF8ECC39850030241157E02
:103FC3000C90087DE4F0EA2477F582EB3400F58366
:103FD300E090087EF0EA2478FCEB3400FD787F79EA
:103FE300087F028C828D83E088828983F08C828DA6
:103FF30083A3AC82AD8388828983A3A882A9831F0C
:10400300EF70E0EA247AFCEB3400FD7F028C828DB2
:1040130083E088828983F08C828D83A3AC82AD8315
:1040230088828983A3A882A9831FEF70E0EA247C96
:10403300FCEB3400FD7F028C828D83E088828983D0
:10404300F08C828D83A3AC82AD8388828983A3A8FD
:1040530082A9831FEF70E0EA247EFCEB3400FD7F2E
:10406300028C828D83E088828983F08C828D83A386
:10407300AC82AD8388828983A3A882A9831FEF7052
:10408300E0EA2475FCEB3400FD8A828B83A3A3A3AF
:10409300A3A3E0F508A3E0F5098C828D83E025084E
:1040A300F0A3E03509F07F028C828D83E08882895A
:1040B30083F08C828D83A3AC82AD8388828983A3B2
:1040C300A882A9831FEF70E0EA2483F582EB340012
:1040D300F583E0601975087D75090878081225DCF9
:1040E3007C0C7903120EE974021223887E1074018A
:1040F3002EF5D975D90375827D758308EEFFE0F53A
:10410300D9A31FEF70F875E195790412105D790159
:104113008002790002487274F61223C99061D0E0DC
:10412300F87480C398FCEA2483F582EB3400F583AA
:10413300E06004780480027800E8240AF8ECC3986D
:10414300500302420A75080890087D7401F07CF060
:104153007D07787E79087E058C828D83E08882894D
:1041630083F08C828D83A3AC82AD8388828983A301
:10417300A882A9831EEE70E0EA2481FCEB3400FDE3
:104183008A828B83A3A3A3A3A3E0FEA3E0FF8C8275
:104193008D83E02EF0A3E03FF07E028C828D83E0DE
:1041A30088828983F08C828D83A3AC82AD838882DD
:1041B3008983A3A882A9831EEE70E0EA2483F58293
:1041C300EB3400F583E0601A75087D7509087808FB
:1041D3001225DC7C087903120EE974021223887518
:1041E300080C74012508F5D975D90375827D75838B
:1041F30008AE08E0F5D9A31EEE70F875E1957904D1
:1042030012105D79018002790002487274F712235B
:10421300C9EAFEEBFF9061D0E0600302430675D963
:104223001875D90375D903EEF8EFF9E82408FAE90C
:104233003400FBE8249CF582E93400F583E0F5D9EA
:1042430088828983A3A882A983EA687002EB6970D4
:10425300E2EEF8EFF9E82402FAE93400FBE824A4DB
:10426300F582E93400F583E0F5D988828983A3A830
:1042730082A983EA687002EB6970E2EE2494F58206
:10428300EF3400F583E5822408F8E5833400F9E090
:10429300F5D9A3E865827003E9658370F2EE24889B
:1042A300F582EF3400F583E5822404F8E5833400D6
:1042B300F9E0F5D9A3E865827003E9658370F275C7
:1042C300E1957908EE2494FAEF3400FB120EA179FC
:1042D30004EE2488FAEF3400FB120EA179041210C5
:1042E3005DEE2470F582EF3400F583E0F8A3E0F986
:1042F300EE2472F582EF3400F583E8F0A3E9F07958
:1043030001800279000243ED74F71223C9EAFEEB40
:10431300FF9061D0E060030243E875D90E75D903BD
:1043230075D904EE248CF582EF3400F583E58224FD
:1043330008F8E5833400F9E0F5D9A3E86582700352
:10434300E9658370F2EE2484F582EF3400F583E5AA
:10435300822404F8E5833400F9E0F5D9A3E8658203
:104363007003E9658370F275E1957908EE248CFAA0
:10437300EF3400FB120EA17904EE2484FAEF34002B
:10438300FB120EA17C00EEF8EFF9ECFAC3E49AFA03
:1043930095E0FBEE2AFAEF3BFBEA248BF582EB3444
:1043A30000F583E0C0E0E824ABF582E93400F5834F
:1043B300D0E0F00C88828983A3A882A983ECC394FC
:1043C3000840C7EE2470F582EF3400F583E0F8A3CC
:1043D300E0F9EE2472F582EF3400F583E8F0A3E907
:1043E300F07901800279008001F07F0102249BC0F3
:1043F30082C08375D90275D90375D90575E195EA2C
:104403002470F582EB3400F583E0F8A3E0F9EA24A5
:1044130072F582EB3400F583E8F0A3E9F079010249
:1044230039D574F61223C9EAFEEBFF90087D7406B2
:10443300F075087D75090878081225DC7C0179037D
:10444300120EE9740212238875D90675D903758291
:104453007D758308E0F5D9A3E58264827004E58362
:10446300640870F075E1959004A7E06408701EEE8F
:104473002470F582EF3400F583E0F8A3E0F9EE242D
:1044830072F582EF3400F583E8F0A3E9F0790102D5
:10449300487274F61223C9EAFEEBFF9061D0E07014
:1044A3005E90087D740AF075087D75090878081216
:1044B30025DC7C017903120EE9740212238875D975
:1044C3000675D90375827D758308E0F5D9A3E58266
:1044D30064827004E583640870F075E195EE2470DE
:1044E300F582EF3400F583E0F8A3E0F9EE2472F5EA
:1044F30082EF3400F583E8F0A3E9F07901800279D3
:104503000002487274F61223C9EAFEEBFF9061D0F1
:10451300E07066780190087D740BF09004A7E06466
:1045230007701975087D75090878081225DC7C0168
:104533007903120EE974021223887805740128F5B1
:10454300D975D90375827D758308E8FAE0F5D9A397
:104553001AEA70F875E195EE2470F582EF3400F5F0
:1045630083E0F8A3E0F9EE2472F582EF3400F583DB
:10457300E8F0A3E9F079018002790002487274F748
:104583001223C9EAFEEBFF75D90375D90375D90D5B
:10459300EE24DEF582EF3400F583E0F5D975E1957D
:1045A300790412105DEE2470F582EF3400F583E098
:1045B300F8A3E0F9EE2472F582EF3400F583E8F016
:1045C300A3E9F079010243ED74F61223C9EAFEEB85
:1045D300FF9061D0E0F87480C398FAEE2483F582EB
:1045E300EF3400F583E06004780480027800E82467
:1045F3000BF8EAC39850030246A17D0990087D7425
:1046030008F0EE24E5F8EF3400F97A7E7B087C08A5
:1046130088828983E08A828B83F088828983A3A836
:1046230082A9838A828B83A3AA82AB831CEC70E06A
:10463300EE2483F582EF3400F583E0601D75087D79
:1046430075090878081225DC7C097903EEFAEFFB7B
:10465300120EE974021223887D0D74012DF5D975AC
:10466300D90375827D7583088D08E0F5D9A31508F4
:10467300E50870F675E195790412105DEE2470F586
:1046830082EF3400F583E0F8A3E0F9EE2472F582BB
:10469300EF3400F583E8F0A3E9F0790180027900B3
:1046A30002487274F61223C9EAFEEBFF9061D0E070
:1046B300F87480C398FAEE2483F582EF3400F5830F
:1046C300E06004780480027800E8240BF8EAC398D9
:1046D300500302476B7D0990087DEDF0EE24E5F869
:1046E300EF3400F97A7E7B087C0888828983E08A2C
:1046F300828B83F088828983A3A882A9838A828B91
:1047030083A3AA82AB831CEC70E0EE2483F582EFD3
:104713003400F583E0601D75087D7509087808127B
:1047230025DC7C097903EEFAEFFB120EE974021221
:1047330023887D0D74012DF5D975D90375827D7597
:1047430083088D08E0F5D9A31508E50870F675E12F
:1047530095790412105DEE241DF582EF3400F58384
:10476300E4F0A3F079018002790002487274F61232
:1047730023C9EAFEEBFF9061D0E0F87480C398FA96
:10478300EE2483F582EF3400F583E060047804803F
:10479300027800E82408F8EAC39850030248707DC1
:1047A3000690087D740CF09004C4E090087EF07AC3
:1047B300C57B04787F79087C028A828B83E08882B8
:1047C3008983F08A828B83A3AA82AB8388828983BD
:1047D300A3A882A9831CEC70E07AC77B047C028ABD
:1047E300828B83E088828983F08A828B83A3AA8267
:1047F300AB8388828983A3A882A9831CEC70E0EE33
:104803002483F582EF3400F583E0601D75087D7520
:10481300090878081225DC7C067903EEFAEFFB120F
:104823000EE974021223887D0A74012DF5D975D916
:104833000375827D7583088D08E0F5D9A31508E516
:104843000870F675E195790412105DEE2470F58217
:10485300EF3400F583E0F8A3E0F9EE2472F582EF7C
:104863003400F583E8F0A3E9F07901800279007F51
:104873000202249B74F61223C9EAFEEBFF9061D077
:10488300E0F87480C398FAEE2483F582EF3400F5E0
:1048930083E06004780480027800E82404F8EAC323
:1048A300985003024951780290087DE8F0EE24F70E
:1048B300F582EF3400F583E090087EF0EE2483F573
:1048C30082EF3400F583E0601B75087D7509087875
:1048D300081225DC7C027903EEFA120EE974021247
:1048E30023887806740128F5D975D90375827D75F7
:1048F30083088808E0F5D9A31508E50870F675E183
:1049030095EE2474F582EF3400F583E4F0EE248011
:10491300F582EF3400F583E4F0EE241DF582EF34E5
:1049230000F583E4F0A3F0790412105DEE240DF595
:1049330082EF3400F583E0F8A3E0F9EE2472F58208
:10494300EF3400F583E8F0A3E9F079018002790000
:1049530002487274F61223C99061D0E0F87480C3E0
:1049630098FCEA2483F582EB3400F583E060047855
:104973000480027800E82404F8ECC398405B7902D1
:1049830090087D7407F0EA24F8F582EB3400F58390
:10499300E090087EF0EA2483F582EB3400F583E0AF
:1049A300601875087D75090878081225DC7C0209F2
:1049B300120EE974021223887906740129F5D97558
:1049C300D90375827D758308E9F8E0F5D9A318E862
:1049D30070F875E19579018002790002487274F5E7
:1049E3001223C9E9FCA2AFE433F50AC2AF7D00800C
:1049F300010DEA246FF582EB3400F583E0F8EDC393
:104A030098501A8D08EA2508F8EB3400F9E8246B6E
:104A1300F582E93400F583E06C70D68024EA246FD4
:104A2300F8EB3400F9E0FEEA2EFAEB3400FBEA245B
:104A33006BF582EB3400F583ECF088828983E00424
:104A4300F0E50AA2E092AF7F0302249B74F61223DF
:104A5300C9A2AFE433FDC2AFEA246FF582EB3400A1
:104A6300F583E014F07C0060368C08EA2508F8EB47
:104A73003400F9E8246CF582E93400F583E0C0E002
:104A8300E8246BF582E93400F583D0E0F00CEA24E6
:104A93006FF582EB3400F583E0F8ECC39840CAEA83
:104AA300246EF582EB3400F58374FFF0EA246AF593
:104AB30082EB3400F583E4F0EDA2E092AF0248729A
:104AC300C082C083E5A8F8C2AFEA246BF582EB3459
:104AD30000F583E9F0EA246AF582EB3400F583E418
:104AE300F0E8A2E792AF0239D574F31223C9EAFEC4
:104AF300EBFFECFAEDFB8A828B83A3A3A3A3E05421
:104B03001FF0EE2436F582EF3400F583E4F0F50A66
:104B1300EEFCEFFD8A828B83E0C0E0EC245DF5823E
:104B2300ED3400F583D0E0F0750B00E50A33333341
:104B330054F8F50C8A828B83E0F508750900E50BC0
:104B43007808122340E508A2E0502FEE2436F8EF50
:104B53003400F988828983E0F508EE2508F508EF2B
:104B63003400F509E5082438F582E5093400F583B6
:104B7300E50CF088828983E004F0050B050CE50B56
:104B8300C3940840AF050A8A828B83A3AA82AB83AE
:104B93008C828D83A3AC82AD83E50AC39405500355
:104BA300024B177F0502249B74F71223C99004D389
:104BB300E0640370077A007B000243ED7B0078D347
:104BC300790488828983A3A3A3A3A3A3E060030238
:104BD3004EA5EBF875F006A4C8AAF02AF974D728F5
:104BE300F8740439F988828983A3A37401F0888255
:104BF3008983A3A3A3E4F0EB88828983A3A3A3A35C
:104C0300F0E82462F582E93400F5837401F0E824C6
:104C130065F582E93400F583E4F0A3F0E82468F550
:104C230082E93400F5837401F088828983A3A3A306
:104C3300A3A3E4F0A3F088828983A3A3A3A3A3A3DC
:104C4300A3F0A3F0E8240FF582E93400F58374019F
:104C5300F0E82435F582E93400F583E4F090836DC0
:104C6300122260E82418F582E93400F58312226CDD
:104C7300E8241CF582E93400F583E4F0E8241DF50B
:104C830082E93400F583E4F0A3F0E82480F582E9B7
:104C93003400F583E4F0E82474F582E93400F58305
:104CA300E4F0E82469F582E93400F5837480F0E8E0
:104CB300246AF582E93400F583E4F0E8246FF58291
:104CC300E93400F583E4F0E82467F582E93400F57C
:104CD30083E4F0E824EDF582E93400F583E4F0E8B9
:104CE30024EEF582E93400F583E4F0E824EFF5825D
:104CF300E93400F583E4F0E824F0F582E93400F5C3
:104D030083E4F0E824F1F582E93400F583E4F0A3C9
:104D1300F0E824F3F582E93400F583E4F0A3F0E846
:104D230024F6F582E93400F583E4F0E82483F58280
:104D3300E93400F583E4F0E824D3F582E93400F59F
:104D430083E4F0E824D4F582E93400F583E4F090B9
:104D5300836D122260E824D5F582E93400F58312CD
:104D6300226C90836D122260E824D9F582E9340025
:104D7300F58312226CE824DFF582E93400F583E43D
:104D8300F0E824E1F582E93400F583E4F0E824DD7A
:104D9300F582E93400F583E4F0E824E2F582E934AE
:104DA30000F583E4F0E824E3F582E93400F583E4D5
:104DB300F0E824F9F582E93400F583E4F0A3F0E8A0
:104DC30024FBF582E93400F583E4F0A3F0E824FD45
:104DD300F582E93400F583E4F0A3F0E824FFF582DB
:104DE300E93400F583E4F0A3F0E8FAE9FBEA2404EC
:104DF300FCEB3400FDEA246BF582EB3400F583749D
:104E0300FFF08A828B83A3AA82AB83EC6A7002EDE4
:104E13006B70E2E8FAE9FB7CF07D078C828D83E01E
:104E2300C0E0EA245DF582EB3400F583D0E0F08C3A
:104E3300828D83A3AC82AD838A828B83A3AA82AB48
:104E430083EC64F57003ED640770D0E8FAE9FB7C4A
:104E5300BA7D048C828D83A3E0C0E0EA24E5F58269
:104E6300EB3400F583D0E0F08C828D83A3AC82AD6C
:104E7300838A828B83A3AA82AB83EC64C27003ED23
:104E8300640470CF9004D3E004F06401700D888251
:104E93008983A3A3A3A3E09004D5F0E8FAE9FB0276
:104EA3004BBC0BE82406F8E93401F9EBC394034047
:104EB30003024BB8024BC5C082C0838A828B83A393
:104EC300A3A3E0600F8A828B83A3A3A3E4F09004DF
:104ED300D4E014F09004D3E014F070069004D57479
:104EE300FFF08A828B83A3A3E4F09007F5E0700DB3
:104EF3009004D4E06401700579001210270239D5BB
:104F0300C082C08378D3790488828983A3A3A3A3AF
:104F1300A3A3A3E4F088828983A3A3A3A3A3A3F0F9
:104F2300E82406F8E93401F9E864E57003E9640765
:104F330070D69004D3E4F0A3F0A374FFF075E1F10D
:104F43000239D574F31223C9750800750900750C6D
:104F530000750AD7750B04AE0AAF0B8E828F83A33D
:104F6300A3A3E0603FE5084509700AEEF8EFF9886E
:104F7300088909802F850882850983E0F8A3E0F575
:104F8300838882A3A31225EF8E828F83E0F8A3E0A8
:104F9300F5838882A3A3122260122C89740412233E
:104FA30088E960C7050CEE2406F50AEF3401F50B1A
:104FB300E50CC3940340A0850882850983A3A3A3BA
:104FC300A3E0F9024BA674F61223C978FF79FF75A3
:104FD30008007ED77F04EEFCEFFD8C828D83A3A3B4
:104FE300A3E0606474FF68700374FF697025EC24A8
:104FF30074F582ED3400F583E064017011EC247ADA
:10500300F582ED3400F583E0F8A3E0F9803AEC246F
:105013002E80EDEC2474F582ED3400F583E0640119
:105023007014EC247AF582ED3400F583C3E098A381
:10503300E099501480C7EC242EF582ED3400F583FB
:10504300C3E098A3E09940C60508EE2406FEEF34BA
:1050530001FFE508C394035003024FD9C3EA98EB59
:10506300994004E8FAE9FB02487274F61223C9EA8C
:10507300FEEBFF8E828F83A3A3A3E0600F8E828F4C
:1050830083A3A3A3E4F09004D4E014F09004D3E04A
:1050930014F070069004D574FFF08E828F83A3A35F
:1050A300E4F09007F5E0700D9004D4E0640170051E
:1050B3007900121027EE2465F582EF3400F583E0C2
:1050C300F8A3E0F9E8496029EE2465F8EF3400F924
:1050D300880889098882F583E0FCA3E0FD9004D564
:1050E300E0FA7B00120B0B850882850983E4F0A3A9
:1050F300F0EEFAEFFB120F6702487274F71223C93E
:10510300EAFEEBFF8E828F83A3A3A3A3E0FA7B00C7
:10511300120B53EEFAEFFB120E5F120F490243ED2F
:10512300C082C0837C007AD77B04EAF8EBF98882DB
:105133008983A3A3A3E0601EE8246FF582E934000A
:10514300F583E06011E8246BF582E93400F583E030
:105153007004790180110CEA2406FAEB3401FBECAC
:10516300C3940340C579000239D5C082C08378BA9D
:10517300790488828983A3E4F088828983A3A8823F
:10518300A983E864C27003E9640470E69004BB0277
:105193003767C082C08374FC12237290836D12221E
:1051A3006085188285198312226C120EA7E985186F
:1051B30082851983F0120EA774011223BDE9F01240
:1051C3000EA774021223BDE9F08518828519831294
:1051D300226074040231ED74F61223C9EAFEEBFF78
:1051E300EC2403F8ED3400F988088909EC2407F866
:1051F300ED3400F9E8FCE9FD8C828D83E0F8A3E04F
:10520300F9850882850983E0FAA3E0FB1222E7EE21
:10521300240DF582EF3400F583E8F0A3E9F08C82E6
:105223008D83E0F8A3E0F9850882850983E0FAA37A
:10523300E0FB1222E78B09EA45096013EE240DF522
:1052430082EF3400F583E02401F0A3E03400F002A0
:10525300487274F61223C9EAFEEBFFEE242EF582A0
:10526300EF3400F583E0FCA3E0FD780079FAECFA73
:10527300EDFB1222E7EE2470F582EF3400F583E8AC
:10528300F0A3E9F0780079FAECFAEDFB1222E78B50
:1052930009EA45096013EE2470F582EF3400F583C3
:1052A300E02401F0A3E03400F002487274F012230A
:1052B300C9EAFEEBFF74101223BD780812224212D2
:1052C3000FEB8A0C8B0D8C0E8D0F9082F1780C12E4
:1052D30021A8908369780C122209780C1225D88EA4
:1052E300828F83E0F8A3E0F5838882A3A312226070
:1052F300122C897404122388E960030253FC8E8202
:105303008F83E02402F8A3E03400F9E8FAE9FB8A8A
:10531300828B8378081221BB90836978081222421A
:105323008A828B83780812221CEE240BF582EF34D9
:1053330000F583C082C0838E828F83A3A3A3A3A31C
:10534300E02401F8A3E03400F9D083D082E0687050
:1053530003A3E069700579010253FE8E828F83A354
:10536300A3A3A3A3A3A3E02401F0A3E03400F0EEDE
:105373002474F582EF3400F583E064017036EE2483
:1053830075F582EF3400F583E0F8A3E0F98E828FA0
:1053930083A3A3A3A3A3A3A3E0687003A3E06970FB
:1053A30013EE2475F582EF3400F583E02401F0A3B6
:1053B300E03400F0EE2480F582EF3400F583E064FE
:1053C300017036EE2481F582EF3400F583E0F8A313
:1053D300E0F98E828F83A3A3A3A3A3A3A3E06870A2
:1053E30003A3E0697013EE2481F582EF3400F583A3
:1053F300E02401F0A3E03400F079007F0802249B4D
:1054030074F71223C99004D5E0F875F006A4C8AA6E
:10541300F02AF974D728FE740439FF8028EE246536
:10542300F8EF3400F988828983E0FCA3E0FD8882E9
:105433008983E4F0A3F08E828F83A3A3A3A3E0FA6E
:105443007B00120B0BEE2465F582EF3400F583E04D
:10545300F8A3E0F9E849604FEE2464F582EF3400E5
:10546300F583E0F50878081225E0EE2463F582EF72
:105473003400F583E0F9EE2465F582EF3400F5831B
:10548300E0FCA3E0FDEEFAEFFB120E95740112238C
:1054930088E96089EE2465F582EF3400F583E0F84E
:1054A300A3E0F9E84970137C007D008E828F83A30B
:1054B300A3A3A3E0FA7B00120B0B0243ED74F212D9
:1054C30023C9EAFEEBFF890A740E1223BDE0FAEE4C
:1054D3002462F582EF3400F583E064016003025532
:1054E3008C9061D0E0F87480C398F50CEE2483F5BA
:1054F30082EF3400F583E060047804800278008949
:1055030008E928F8E43400F9E824020808E934003B
:10551300F9E50C98E499A2D265D0334068EA7005A6
:10552300750B028003750B01E0603975090078087B
:105533001225DC7A7D7B08120ECB74021223887548
:10554300087D75090878081225DCAC0AA90BEEFA68
:10555300EFFB120EE974021223887404250AF50A7C
:105563007C7D7D087401250AF5D9850BD9E50A6090
:105573000D8C828D83F8E0F5D9A318E870F875E1F6
:1055830095790080067907800279FF7F0602249BC4
:10559300C082C083E960208C828D83E08A828B8302
:1055A300F08C828D83A3AC82AD838A828B83A3AA82
:1055B30082AB8319E970E0ECFAEDFB0239D574F4A0
:1055C3001223C9E99004A6F0120FF7907800E0C403
:1055D300540F540764037004793F8002797F750880
:1055E3000675090078081225DC7C947D047AEA7B31
:1055F300071215677402122388900494E0F470492B
:10560300A3E0F47044A3E0F4703FA3E0F4703AA382
:10561300E0F47035A3E0F4703090780EE0900494D9
:10562300F090780FE0900495F0907810E090049655
:10563300F0907811E0900497F0907812E09004983D
:10564300F0907813E0900499F090049A74FFF0A31B
:10565300F0A3F0A3F0A3F0A3F0900494E09004A0CF
:10566300F0900495E09004A1F0900496E09004A2D9
:10567300F0900497E09004A3F0900498E09004A4C1
:10568300F0900499E09004A5F09004C47406F0A38C
:10569300740DF0A3E4F0A37432F0A37401F0900747
:1056A300FB74FFF0A3F0A3F0A3F0A3F0A3F0900723
:1056B300FAE4F0900801F0A374A0F0A3E4F0A3745B
:1056C30003F0A37407F0A3E4F0A37428F0A3E4F0B9
:1056D300A304F0A3E4F090082AF090085074FFF0BC
:1056E300A3F0A3F0A3F0A3F0A3F090084FE4F0908D
:1056F300085604F0A3E4F0A3F0A37480F0A37402AB
:10570300F0A37480F0A37402F0A3E4F0A304F0A365
:10571300F0A3E4F0A37425F0A3E4F0A3F0900867EA
:1057230074FFF0A3F0A3F0A3F0A3F0A3F090086636
:10573300E4F090086D04F0A3E4F0A37480F0A37484
:1057430002F0A37480F0A37402F0A37425F0A3E421
:10575300F0A3F0A37405F090087774FFF0A3E4F0CE
:10576300900879F090087B04F0120D6F120C8512EB
:105773000FB579017A7C7B08120EAD90087CE07539
:10578300F01484E5F004F0790C7A9D7B08120EADD9
:10579300120EC57A009004A6E0F91213BD907803A7
:1057A300E06442705E90087CE014F07056C2AF1261
:1057B30057B500782AD0E0F618D0E0F6E59F5407F5
:1057C300F97005908339800390835578081222423B
:1057D300E9C4C0E07829E65508F50808E65509F557
:1057E30009740B7808122350D0E02508F8906270F2
:1057F300E0A2E740F8E8C333906272F0906270E091
:10580300D2E0F09004D1E4F0A3F07A80FB9004A6F8
:10581300E0F912136902685574F61223C9EAFEEB24
:10582300FFEEA2E050489004A8E0C39480E0500F3C
:10583300C333F8E433F9747028F5827415800EF4D9
:10584300C333F8E433F9747E28F582741539F5838C
:10585300E0F8A3E0F58388821223C77A009004A6B8
:10586300E0F91213BDEE6401FAEFFB025AF5540896
:10587300700302590B900875E0F875F006A4C8AAE6
:10588300F02AF974D728FA740439FB7508007808EC
:105893001225E0EA2432F582EB3400F583E0F508C3
:1058A300A3E0F5097404780812235078081225DC64
:1058B300EA2430F582EB3400F5831225F3EA242E33
:1058C300F582EB3400F583E0F508A3E0C313F50993
:1058D300E50813F50878081225DC7508EA75090749
:1058E30078081225DC9007E9E0FD7C008A828B832F
:1058F300A3A3A3A3E0FA7B007900120B4D74091252
:105903002388EE640802586BEE541060407508005B
:1059130078081225E0E4F50978081225DC780812E6
:1059230025DC78081225DC7508EA75090778081262
:1059330025DC9007E9E0FD7C007A007B0079021208
:105943000B4D7409122388EE641002586BEE540257
:10595300604075080078081225E0E4F5097808121C
:1059630025DC78081225DC78081225DC7508EA7531
:10597300090778081225DC9007E9E0FD7C017A002D
:105983007B00793C120B4D7409122388EE640202EA
:10599300586BEE54047003025A3A9004D5E0F8753C
:1059A300F006A4C8AAF02AF974D728FA740439FBBC
:1059B300EA242AF582EB3400F583E0F5087808122F
:1059C30025E0EA2432F582EB3400F583E0F508A301
:1059D300E0F5097404780812235078081225DCEAEC
:1059E3002420F582EB3400F5831225F3EA242EF507
:1059F30082EB3400F583E0F508A3E0C313F509E572
:105A03000813F50878081225DC7508EA7509077884
:105A1300081225DC9007E9E0FD7C018A828B83A3D1
:105A2300A3A3A3E0FA7B007900120B4D74091223A0
:105A330088EE640402586BEE5440604075080078A9
:105A4300081225E0E4F50978081225DC7808122508
:105A5300DC78081225DC7508EA7509077808122531
:105A6300DC9007E9E0FD7C017A007B00793B120BB7
:105A73004D7409122388EE644002586BEE54806023
:105A83002279001213B79083351225EF7A007B0138
:105A93009004A6E0F91213E17404122388EE6480E3
:105AA30002586BEF5401600D79011213B7EEFAEF50
:105AB300640102586D9004ADE064017031EE54202E
:105AC300602C9004A7E024F9600314701B793F90C5
:105AD30004D5E0FA75F006A4CAA8F028FB74D72A07
:105AE300FA74043BFB120E65EE642002586B7A00D5
:105AF3007B000263D3C082C083C2AF120FD9E5E13A
:105B030070FC75E101120D5D120D5775E1F1121074
:105B13000379071210AB79011210B1790212102D1B
:105B230012106312109379001210A579011210A5B7
