:020000040000FA
:0600000002010A022AFAC7
:03002B00022F6839
:03003300022F4A4F
:03003B00022F8110
:03004300022EFE8C
:03005300022B700D
:03006B00022F243D
:100083000229EBE5C754F84401F5C77901220000C2
:100093000080FB120086B900030200F4E4792178A2
:1000A30008B800028004F709D8FCE479297802B87B
:1000B30000028004F709D8FCE490028178A7791143
:1000C3008002F0A3D8FCD9FA901327AA82AB8390BD
:1000D300013A787879048015E493A3AC82AD838ADE
:1000E300828B83F0A3AA82AB838C828D83D8E9D9D8
:1000F300E77582E87583D9740412011C75829175C2
:100103008300740012011C75D00075813F7518813E
:10011300751902759F00020096C09FF59FE473D086
:100123009F22D083D082C09FE493C0E0740193C028
:10013300E0740293F59F222B063D0667063106FF06
:100143000000B4000028002800283075A000A0009B
:10015300A000A00000080008E001F000100010005B
:10016300100010001000100050005000500010004C
:100173001000D0070000000000000F000100050080
:10018300307507001000010081FF0000FFAB07C9B5
:1001930007B107FF02020208025000A0000000E8B6
:1001A300030297990100007799029D990100008449
:1001B3001302A399010000B702029D990100008573
:1001C3001302A599010000CD02029D99010000864A
:1001D3001302A799010000CF02029D990100008735
:1001E3001302AB99080000D002029D990100008818
:1001F3001302AD990100008913FFFF0100FF2002E4
:1002030097990100007A99029D99010000EE13026B
:10021300AF99000000000002A199030000B1036739
:100223000F670F670F670F670F670F670F670F671B
:100233000F670F670F670F670FB311D111AD11F17F
:10024300120913EB12FFFF02020202020202020270
:10025300010D000000100102979901000086990228
:100263009D99010000371402B599010000710E0237
:100273009D99010000381402B39901000090950282
:100283009D99010000391402B1990100003C9502C7
:100293009D990100003A1402A9990100008193027B
:1002A3009D990100003B14029999010000C9930232
:1002B3009D990100003C14029199010000DB930217
:1002C3009D990100003D14028B99010000ED9302FA
:1002D3009D990100003E14028D990100002E9502A4
:1002E3009D990100003F14028F9901000040140101
:1002F300E803053F1002FF00013075030201060009
:1003030000000000000000000000000000000000EA
:100313000000000000000000000000FFFF06008056
:100323000CE803FEFF01010201060302F0FF0201D4
:10033300061AFF4C000215E2C56DB5DFFB48D2B0CB
:1003430060D0F5A71096E000010002CDC118C718D0
:10035300D318D918CD180A43686172616374657242
:100363006973746963203100024368617261637465
:10037300657269737469632032000843686172614E
:100383006374657269737469632033001043686131
:100393007261637465726973746963203400024324
:1003A300686172616374657269737469632035008F
:1003B300164368617261637465726973746963205B
:1003C30036000297990100008099029D990100006F
:1003D300461502BD99030000D212029F9901000045
:1003E3004715029D99010000581502BF99010000AD
:1003F300D312029F990100005915029D9901000033
:100403006A1502C199020000D412029F99010000EB
:100413006B15029D990100007C1502C39900000031
:10042300D51202A199030000D612029F9901000080
:100433007D15029D990100008E1502C599040000E7
:10044300E212029F990100008F15029D990100009D
:10045300A01502C799030000E71202A19903000047
:10046300FB12029F99010000A1153031323334355C
:100473003637383941424344454600286E756C6C23
:1004830020706F696E74657229003F3F3F00000062
:10049300807F0000803FF9021550B743BA51000036
:1004A300204100E7DB2E0000A040080000001201FD
:1004B300254BCF0412012561CF041201258ECF04F1
:1004C300120125BECF04120125DFCF04120125102E
:1004D300D00412012561D00412012578D004120141
:1004E300257BCA0412012592CA04120125C1CA043C
:1004F300120125FACA0412012522CB041201255048
:10050300CB0412012567CB041201257ECB04120113
:100513002594CB04120125BBCB04120125CECB04B9
:10052300120125E4CB04120125F7CB041201251C8B
:10053300CC04120125008003120125FF8003120160
:10054300252981031201257E81031201259F810341
:10055300120125B88103120125BA8103120125DB9B
:100563008103120125DE82031201259B83031201FD
:1005730025688403120125CC8403120125638503B6
:10058300120125668503120125EC85031201252F2F
:100593008603120125818603120125B88603120101
:1005A300253E8703120125C78703120125108803FF
:1005B3001201251D88031201252088031201257EBF
:1005C300880312012596880312012510890312015D
:1005D300251389031201253689031201253989035D
:1005E300120125E08903120125038A031201251B49
:1005F3008A031201254B8A03120125588A0312012B
:10060300255B8A03120125C78A03120125B58B03D3
:100613001201256B8C03120125A6A1031201258665
:10062300A20312012506A30312012526A303120127
:100633002564A303120125B7A3031201251FA403F5
:10064300120125B0A4031201257BA5031201258AFB
:10065300A803120125F6A90312012519AA03120101
:100663002553B604120125E4B70412012535B80455
:1006730012012594B804120125A2B804120125CB56
:10068300B804120125F08F041201251890041201F9
:10069300254690041201257D9004120125E590045E
:1006A3001201252E9104120125799104120125B717
:1006B3009104120125F491041201252292041201DE
:1006C30025C99204120125D39204120125E0920454
:1006D300120125139304120125D59304120125E178
:1006E3009304120125F993041201250394041201C2
:1006F30025819404120125BED304120125CCD30411
:10070300120125E4D304120125FCD304120125149C
:10071300D4041201256BAE0212012509AF021201A6
:100723002581AF0212012596B002120125D0B00235
:1007330012012579B1021201254EB202120125B22E
:10074300B30212012509B40212012590B402120169
:100753002577B502120125C4B50212012552B6024E
:1007630012012576B6021201254BB8021201258C1F
:10077300B802120125AEB8021201252FB9021201E7
:100783002519BA02120125DFBA0212012514BD028E
:1007930012012559ED031201252BEE03120125D475
:1007A300EE0312012517EF03120125A4EF03120133
:1007B3002530F00312012511F10312012540F10345
:1007C3001201253CF20312012584F203120125864E
:1007D300F303120125CAF303120125F0F3031201F7
:1007E300255CD804120125FAAA0412012510AB04D2
:1007F30012012536AB041201255EAC0412012568F3
:10080300AC04120125C1AD04120125C1AE041201CD
:1008130025CBAE04120125CA8A04120125FF8B04DD
:10082300120125328C041201257C8C041201253A15
:100833008E041201258CDA011201250ADB01120153
:10084300251ADB01120125FDDB011201252BDC0139
:1008530012012536DC0112012520DD01120125BC20
:10086300DD01120125C0DF0112012577E10112012B
:1008730025F3E101120125D0E201120125FEE50174
:100883001201259CE601120125F9E7011201256CED
:10089300E90112012515EA011201255EEA0112019F
:1008A3002595EA011201253AEB01120125B8EB0166
:1008B300120125339002120125889002120125CDE1
:1008C3009102120125DD910212012500920212010B
:1008D300254B9202120125F09202120125E69302A2
:1008E300120125B094021201252896021201256AED
:1008F300960212012508970212012555970212014B
:10090300257B97021201256999021201256E99022E
:100913001201254F9B02120125A39B0212012505FB
:100923009C021201252D9C02120125D19C02120169
:1009330025939D02120125C49D02120125C79D0224
:100943001201250F9E02120125519E02120125B8A4
:100953009E021201252BC6041201253EC604120174
:100963002547C60412012560C604120125ABC6043F
:1009730012012586C70412012515C804120125603A
:10098300C804120125CC9901120125DC9901120139
:10099300253F9A01120125849A01120125349B01F6
:1009A300120125089C01120125709C011201259951
:1009B3009C01120125C99C01120125DD9E01120132
:1009C30025B9A00112012599A201120125D1A30184
:1009D3001201254AA60112012536A7011201257C21
:1009E300A80112012589A901120125CBA901120130
:1009F3002503AA011201251DAA0112012585AA01B9
:100A03001201251FAF01120125C0AF0112012514E8
:100A1300B0011201253BB00112012579B001120189
:100A23002598B001120125ECB001120125C5B101D1
:100A33001201254CB301120125D5B301120125C5BD
:100A4300DE03120125CFDE031201256BDF03120142
:100A53002532E00312012551E00312012577E0035B
:100A6300120125B6E003120125EEE003120125175A
:100A7300E10312012594E103120125A9E103120107
:100A830025BEE103120125E6E10312012520E2035D
:100A930012012544E2031201250DE303120125236C
:100AA300E30312012536E3031201254BE30312018D
:100AB30025DDE30312012517E40312012548E403AE
:100AC30012012574E403120125B8E4031201252859
:100AD300E5031201257CE503120125C5E503120197
:100AE30025EFE50312012514E6031201252AA304C9
:100AF300120125F4A304120125D7A4041201254DE4
:100B0300A5041201258FA504120125BCA604120118
:100B130025829F02120125AB9F02120125C49F0269
:100B230012012509A102120125E7A10212012506DE
:100B3300A20212012593A202120125D6A2021201DA
:100B4300250EA4021201257AA40212012570A60221
:100B5300120125FEA80212012591A90212012565A1
:100B6300AA0212012508AB02120125F2AB021201FF
:100B7300255EAD02120125F4AD021201258FD004CA
:100B8300120125F8D0041201254CD104120125735A
:100B9300D104120125A4D1041201254BFB03120138
:100BA30025B8FB0312012503FC03120125F8FC03FE
:100BB300120125F4FD03120125DEFE03120125F5C2
:100BC300BD0312012537BE0312012511BF03120114
:100BD30025EABF03120125E5C003120125C4C103A1
:100BE30012012530C20312012512C3031201257D10
:100BF300C303120125E4C303120125E7C303120152
:100C03002512C40312012583C40312012516C5034B
:100C13001201257FC50312012594C503120125DCAA
:100C2300C503120125F5C5031201255AC603120196
:100C3300255DC603120125E3B9041201251FBA0479
:100C43001201255DBA0412012527BB041201259A5E
:100C5300BB04120125D5BB0412012513BC041201E8
:100C63002543BC041201256ABC04120125D5BC042A
:100C730012012517BD04120125F42F00120125E2EC
:100C830031001201256E3400120125403500120196
:100C930025833500120125CC3500120125DE3500F0
:100CA3001201251E36001201254D36001201259929
:100CB3003600120125D13600120125FD360012013E
:100CC300254E3700120125DA3700120125B43A0008
:100CD3001201258C3C00120125C83C00120125E8B5
:100CE3003D001201252F3E001201252C3F00120169
:100CF30025FF4000120125644100120125AB41008C
:100D0300120125854600120125B64600120125F47D
:100D13004600120125054900120125B54A001201BA
:100D230025974B0012012585C304120125F7C3043F
:100D33001201254DC40412012591C404120125B1E9
:100D4300C404120125FEC40412012546C504120180
:100D53002599C504120125EAC504120125F2B4033D
:100D63001201250FB503120125A9BA03120125AB00
:100D7300BB0312012525BD03120125D3BD031201B7
:100D830025394C00120125824C00120125AF4C007D
:100D9300120125E24C00120125F24C00120125FE3E
:100DA3004C001201250F4D00120125E44D001201E4
:100DB30025424E00120125774E00120125135000E3
:100DC300120125605000120125AF500012012519B0
:100DD3005100120125AB510012012551520012019D
:100DE30025D65200120125585300120125A25300A3
:100DF300120125D254001201252D5600120125049B
:100E030057001201252957001201256E57001201C0
:100E1300257E57001201259A57001201259D570080
:100E2300120125575800120125205900120125B03F
:100E330059001201254C5A00120125715A00120162
:100E430025D05A001201255F5B00120125B45B0017
:100E5300120125DD5B001201253D5C00120125CB4B
:100E63005C00120125945D00120125315E00120120
:100E730025B85E001201250F5F00120125705F0087
:100E8300120125AA5F0012012553600012012543B8
:100E93006200120125936200120125E36200120130
:100EA30025586300120125E263001201252D640019
:100EB300120125526400120125A36400120125CCFE
:100EC30064001201251165001201258065001201DD
:100ED30025C26500120125C266001201255C670068
:100EE3001201252D680012012546680012012551C3
:100EF300AB03120125A4AB03120125B0AB0312010E
:100F03002585AC03120125ACAC03120125E7AC0324
:100F130012012553AD0312012587AD03120125C02C
:100F2300AD03120125D8AD0312012531AE03120121
:100F3300254AAE0312012593AE03120125A6AE0383
:100F4300120125C0AE03120125D6AE03120125F20C
:100F5300AF0312012503B10312012550B20312019D
:100F63002535B303120125E8FF01120125139A0465
:100F7300120125859D041201259D9E041201253A27
:100F8300D9021201252DDF0212012533DF021201DE
:100F930025B3E102120125129504120125BD950422
:100FA3001201256D960412012592960412012589DA
:100FB3009804120125DC99041201253CB4011201A5
:100FC3002570B40112012575BE01120125C1BF01AF
:100FD300120125DEC00112012568C2011201254A52
:100FE300C30112012584C301120125A7C301120104
:100FF30025E9C301120125F2C3011201253CC401F5
:1010030012012546C401120125F2C401120125C6AD
:10101300C5011201251AC6011201257CC601120160
:1010230025CFC601120125FEC6011201253DC701C8
:101033001201253CC80112012596D0011201259CFD
:10104300D00112012557D6011201253DDA01120103
:10105300255FBD04120125D5BD04120125EBBD0496
:1010630012012528BE0412012560BE04120125DDEC
:10107300BE0412012518BF0412012593BF041201F7
:1010830025CFBF04120125D8BF04120125E4BF04F4
:10109300120125FEBF0412012523C00412012539C4
:1010A300C0041201257DC00412012565F403120159
:1010B3002578F40312012592F403120125BBF403EE
:1010C300120125FEF4031201253DF5031201257BD0
:1010D300F503120125E0F503120125F5F5031201CD
:1010E3002500F6031201250DF60312012524F6034C
:1010F30012012532F60312012541F603120125568A
:10110300F6031201256BF60312012576F60312018D
:101113002582F6031201258FF603120125A2F60399
:10112300120125ADF603120125D2F6031201257B28
:10113300F7031201258BF703120125A0F703120110
:1011430025B5F703120125CFF703120125EAF703AB
:1011530012012507F80312012512F803120125CE07
:10116300F803120125BAF903120125DFF90312016D
:1011730025E9F903120125FDF9031201251CFA03E0
:101183001201257DFA0312012583FA031201258931
:10119300FA031201258FFA031201259BFA031201A8
:1011A30025CEFA031201256F97031201259B97039E
:1011B3001201257F9803120125199B031201252F84
:1011C3009C031201254C9D03120125EF9D0312017F
:1011D30025959E03120125B0CB0212012532CC02C4
:1011E300120125DBCC0212012523CE021201253187
:1011F300D00212012517D1021201254CD10212018E
:10120300256ED10212012517D202120125E7D3025E
:1012130012012510D40212012588D402120125BA25
:10122300D402120125C7D40212012512D5021201DC
:101233002536D50212012587D70212012591D8023E
:10124300120125EDD80212012523BD021201253416
:10125300BE0212012518BF0212012522BF0212018C
:10126300252CBF021201254EBF021201255ABF02CF
:10127300120125FEC0021201252BC10212012541D4
:10128300C20212012596C202120125E5C302120110
:1012930025BAC40212012516C50212012581C50211
:1012A300120125B6C502120125F9C502120125C393
:1012B300C802120125DBC8021201256CC902120102
:1012C300257AC902120125C7C902120125D5C9020F
:1012D30012012541CA02120125BCCA0212012513BB
:1012E300CB021201254BF3021201256DF302120109
:1012F300257EF5021201253DF80212012567F90248
:1013030012012525FA0212012511FB0212012534CF
:101313007E00120125597E00120125CF7E001201A5
:10132300253CE60312012545E6031201254EE6039B
:1013330012012526E703120125D7E8031201250729
:10134300E90312012532E90312012562E9031201BF
:10135300258DE903120125C1E903120125EDE903F6
:1013630012012530EA031201255BEA03120125A2CB
:10137300EA03120125F7EA0312012539EB031201EF
:101383002593EB03120125BEEB031201250DEC039C
:101393001201253DEC0312012568EC031201259689
:1013A300EC03120125B9EC031201256BD9041201D8
:1013B3002597D904120125C4D904120125CED904D5
:1013C300120125DED90412012581C6031201258BE2
:1013D300C603120125CCC60312012515C70312014A
:1013E300254FC703120125A5C703120125C6C7034D
:1013F30012012575CA031201257ECA03120125D2E3
:10140300CA03120125FBCA0312012505CB031201EE
:101413002573CB0312012503CC031201255ECC03F4
:101423001201258CCC0312012514CD03120125537F
:10143300CD0312012588CD031201259ACD03120194
:1014430025C6CD03120125CFCD0312012591CE036D
:10145300120125C7D2041201258AC804120125C02E
:10146300C804120125F4C80412012541CA0412015B
:101473002563DA0412012579DA0412012583DA04DB
:1014830012012546D704120125E89E04120125FB0B
:101493009E04120125BF9F04120125FE9F04120121
:1014A300251BA00412012554A004120125A1A004A8
:1014B300120125D3A0041201250AA1041201251D3E
:1014C300A304120125D1D70412012569FE021201DA
:1014D300258CFE02120125BBFE0212012553FF02D9
:1014E3001201256BFF02120125ADFF021201250037
:1014F3008004120125428004120125C980041201CF
:10150300251E810412012563810412012512820420
:101513001201256D8204120125BC820412012516D5
:1015230083041201252384041201251B850412015F
:1015330025588504120125BBFC01120125E0FC019D
:101543001201250AFD01120125E5D80412012578AF
:101553006800120125766A00120125436C0012010E
:1015630025F06C00120125706D00120125F56D0048
:101573001201251E6E00120125706E001201255600
:101583007300120125CD7300120125E474001201CA
:10159300251E75001201255F7500120125A6760030
:1015A300120125D576001201252B7700120125742F
:1015B3007700120125E0770012012554780012010B
:1015C300258278001201259A7800120125B379004B
:1015D300120125C379001201257C7B00120125939A
:1015E3007B00120125C57B00120125627D001201DB
:1015F30025F67D00120125ADD404120125BED404C5
:101603001201259FFF01120125DEFF01120125EDC5
:101613007F00120125A9D604120125B9D6041201AF
:1016230025D4D6041201253CD704120125C5D104C3
:101633001201254AD204120125AED204120125C695
:10164300CD04120125EFCD041201255ACE04120157
:1016530025ABCE0412012506CF0412012516A704DB
:101663001201253BA70412012558A7041201257571
:10167300A7041201259AA704120125BBA70412018E
:1016830025E5A704120125A2A80412012520A90417
:1016930012012547A90412012551A9041201257637
:1016A300AA04120125A2B204120125B9B20412013F
:1016B3002533B30412012517B404120125EEB50432
:1016C300120125D5AE0412012565AF04120125EEE2
:1016D300AF041201258AB0041201251BB1041201C3
:1016E30025CBB104120125D9B10412012559B20445
:1016F3001201256CB20412012582B2041201258C59
:10170300B2041201259FB2041201255ED504120111
:1017130025E3D504120125EED504120125FED504D7
:101723001201252ECC0412012580CC04120125F3CD
:10173300CC0412012560CD04120125ADC0041201B1
:1017430025D7C004120125A6C10412012582C204B3
:1017530012012513C304120125BFCE031201258BE9
:10176300CF03120125CCCF0312012506D0031201AA
:101773002564D003120125B8D00312012516D10325
:10178300120125ACD103120125B4D2031201253E67
:10179300D403120125DCD40312012543D50312011E
:1017A3002556D5031201254AD60312012593D603E4
:1017B3001201255CE6021201258EE9021201251FA2
:1017C300EB0212012576EB0212012593EB021201C3
:1017D3002513EC021201258FED021201255EEE02A4
:1017E300120125CBF102120125B5F20212012500E7
:1017F30080021201252680021201255B800212015C
:1018030025C780021201254A81021201255C81024B
:10181300120125FE810212012520840212012545B1
:1018230084021201256E84021201259F8402120193
:1018330025A28402120125E48402120125F3840205
:10184300120125FE84021201255785021201255E2D
:1018530085021201250D8602120125178602120147
:10186300253286021201254786021201257288025B
:10187300120125A78902120125D68C03120125D650
:101883008D031201251A8E03120125468F031201BF
:1018930025189003120125409003120125A89403F3
:1018A300120125F89403120125919503120125C70E
:1018B3009603120125F5D603120125DFDA0312017F
:1018C3002566DB03120125C5DC03120125EDDC03CC
:1018D300120125A3DD0312012533DE031201259036
:1018E3008504120125C98504120125E68504120128
:1018F30025358704120125D58704120125FF8804A5
:10190300120125888A04120125CDDA041201250962
:10191300D60412012533D604120125A0FF031201B8
:1019230025D6FF03120125FADA041201256CEC0116
:101933001201258AF101E066701008A3E066700ABF
:1019430008A3E066700408A3E06622C008C3E0961B
:10195300F50808A3E096420808A3E096420808A306
:10196300E0964208A2D265D033E5087001D3D008CF
:1019730022C3E7960809E7960809E7960809E79658
:1019830022C3E09608A3E09608A3E09608A3E09696
:1019930022C008C3E096F50808A3E096420808A30E
:1019A300E096420808A3E09645087001D3D00822C8
:1019B300080808E630E71112226F1219CB0808084D
:1019C300C64480C618181822181818E9799EC60844
:1019D300CAC608CBC608CCC6C370207996CACBCC7E
:1019E3007019798ECBCC70137986CC700EF9802A5E
:1019F300CA33CACB33CBCC33CC331930E7F2CCCB9D
:101A0300CA3350147004EA30E00DE4CA3ACACB3B3F
:101A1300CBCC3CCC500209C3E913C6CC182313C664
:101A2300CB18C6CA18C6F922121A6B20F01430E775
:101A33002B74FFFCFBFA747F8022E4FCFBFA7480B6
:101A4300801AB48008BC00F2BB00EF800F50EBF9A2
:101A5300E4C39AFAE49BFBE49CFCE499C6CC18C665
:101A6300CB18C6CA18C6F922E4C9C608CAC608CB29
:101A7300C6D3330308CCC63392F0C3947F402E946D
:101A8300184019C9B90704CACBCC225025C309CAC7
:101A930033CACB33CBCC33CC33D9F422F4600DC966
:101AA300CCC313CB13CBCA13CAD9F6CC22E4FCFBA9
:101AB300FA2214FCFBFA22E6C333184618461846EA
:101AC30022E7C33319471947194722181818E6089C
:101AD3004608700AE608C3337005E633F422082289
:101AE300191919E7094709700AE709C3337005E7AC
:101AF30033F4220922E6084608C31346083360027A
:101B0300E633F422E7094709C3134709336002E7C1
:101B130033F422121AF86025121B076020121ABA36
:101B23007003021AC4080808E76670101819E766FC
:101B3300700A1819E76670041819E76622F422126E
:101B43001AF8601C121B076017121ABA7007121AD0
:101B5300C47001D322C0D0121AC47006D0D0B322ED
:101B6300C32233D0D0501430E0F6C3E7960809E718
:101B7300960809E7960809E796B32220E0D5E69789
:101B83000809E6970809E6970809E697B322121AA7
:101B9300F8601B121B076016121ABA7007121AC4D8
:101BA300600CB322C0D0121AC47005D0D022C32255
:101BB30033D0D0501330E0EBC3E7960809E796081B
:101BC30009E7960809E7962220E0E4E6970809E684
:101BD300970809E6970809E6972200121AF8604F5A
:101BE300121B076012E7548066F6121ACE701112A8
:101BF3001AC4703B090909F4F618F618F618F62208
:101C0300121AE37015121ABA08080860EAE6447F4C
:101C1300F618768018E4F618F622121ABA6016122D
:101C23001AC47012E4F608F608F608E65480F609BA
:101C3300090918181822EAC0E0EBC0E0ECC0E0ED97
:101C4300C0E0E687F0A4FBACF008E687F0A42CFC28
:101C5300E435F0FA1809E687F0A42C4B600274010E
:101C6300CA35F0FCE433FB09E687F0D2F7A42CCBAA
:101C730035F0FC1908E687F0A42BCC35F0FBE433F0
:101C8300FD0819E687F0D2E7A42C4ACB35F0CD3412
:101C930000FC09E687F0D2E7A42DCC35F0FDE43350
:101CA300FA0918E687F0D2F7A42CCD35F0CA340030
:101CB300FC08E687F0D2E7D2F7A42ACC35F07A7E87
:101CC30020E70B0ACB33CBCD33CDCC33CC33CB3363
:101CD30050147004ED30E00ED2F1E4CD3DCDCC3C98
:101CE300CC3B5005DA05C2F1EB547FC63308E6332B
:101CF30092F0FBE73309E733C39A502D2B70190C8D
:101D03000D4C4D70151806E608C333700D20F10A0B
:101D1300A2F013F6E418800B4024E4F630F00276C8
:101D23008018F618F618F68024D33B14501074FF6D
:101D3300A2F013F6187680E418F618F6800FA2F0D6
:101D430013F618E63303F618ECF618EDF6D0E0FDBB
:101D5300D0E0FCD0E0FBD0E0FA22121B0760461271
:101D63001AF8603DE9687008F618F618F618F622B6
:101D7300748067F7121D91090909748067F72212AD
:101D83001AF8601D121B077005191919801A121A07
:101D9300CE701F121AE3C37003E667331919194093
:101DA300071818182208080874FFF618F618F6180A
:101DB300F622121AE36017121AC4702192F0121A53
:101DC300BA7019501720F014080808090909E7F632
:101DD3001819E7F61819E7F61819E7F622121ABACE
:101DE30060E6E869701F0808E62480F608E436F622
:101DF30018547FB47F0CE654806007F6E418F61895
:101E0300F622181822E9C6CC08C6CD08C6CE08C6E5
:101E1300CFC0E0E8C0E0EAC0E0EBC0E009E9F809C0
:101E2300E7FA09E7FBE6F918E6F8C3EC98ED99EE53
:101E33009AEBC2E7F5F0EFC2E795F0500E600CEBBA
:101E4300CFFBEACEFAE9CDF9E8CCF8EAA2E7D2E78C
:101E5300FAEB33FB13F5F0EEA2E7D2E7FEEF33FF25
:101E6300C5F013A2E730E601B313C5F0C3C0E0C069
:101E7300F07F00C39BFB605B9418600C401AD0E0BA
:101E830023F9D0E0F8021F608AF0E9486003D2F03A
:101E9300E4AFF0FAF9F8803BEB30E40D89F0EA6047
:101EA30003D2F0E4AFF0F9CAF8EB30E30D88F0EFBA
:101EB3006002D2F0AFF0E4CAC9F8EB54076014FB38
:101EC300C3EA13FAE913F9E813F8EF135002D2E067
:101ED300FFDBEDD0E0C0E030E739C3E49FFFF5F06E
:101EE300EC98FC42F0ED99FD42F0EE9AFE42F0D000
:101EF300E0F9D0E0F8E5F0607AE923F9EE20E74273
:101F0300D8028067C3EF33FFEC33FCED33FDEE33D0
:101F1300FE80EAEC28FCED39FDEE3AFED0E023F931
:101F2300D0E0F84002801BC3EE13FEED13FDEC136B
:101F3300FCEF135002D2E0FF08B800067F7F74FF66
:101F4300802EEF3350178CF020F00260100CBC0091
:101F53000C0DBD00080EBE000408E860DFE933E89D
:101F630013FFEE2313FE4F4D4C8008E95480FFE42A
:101F7300FEFDFCEE33EF33F47004FCFD7E80D0E015
:101F8300FBD0E0FAD0E0F8D0E0CFC618CEC618CD2B
:101F9300C618CCC6F922121AF8700418181822129F
:101FA3001B07700D74FFF61819F61819F61819F6B1
:101FB30022E7548066F6121ABA700F121AC470F030
:101FC30014F608F608F608F680D1121AC4700CF657
:101FD30008F608768008E6447F80EC121AE6700C57
:101FE300121AD160BFE65480F6E480BB121AD17096
:101FF3000519191980A5E869700C763F18768018C1
:10200300F618F6E8F922E6CDC0E018ECC0E0E633B6
:10201300CD33CDD313F6E719FCE7191933CC33C30A
:10202300947F400ECD9D502408E65480F6E418F6C4
:10203300800FF4043D14501408E6447FF6187680AC
:10204300E418F618F6D0E0FCD0E0FD22CCD313CC94
:10205300FD18E4C6CBC0E018E4C6CAC0E00808ED2A
:1020630008C633E613F618E433C675F003C3CA97FC
:10207300CA09CB97CB199C40047D08802EBD000371
:1020830002214216B6FF050606081618C3CA33CA4C
:10209300CB33CB33CA27CA09CB37CB193CC37D0813
:1020A300803E187D0820E75CC633C6CA33CACB33EB
:1020B300CB33DDF1D5F0EB30E77BCA97CA09CB9779
:1020C3004ACB199C406F4B7025E620E021806618AF
:1020D3007D08C3CA97CA09CB97CB199CD3C633C60D
:1020E300CA33CACB33CB3350C9DDE7D5F0E1D3E4F0
:1020F300C636C608C636C608C636C608C636C618A5
:1021030018188031C3CA97CA09CB97CB199CB3401F
:1021130097C633C6CA33CACB33CB33DD34D5F02E9F
:10212300C6A2E0C640C8CA27CA09CB37194A70BE3F
:10213300CB3CB480B90808E63308E633601F1818AF
:1021430018D0E0FAD0E0FBD0E0FCD0E0FD22187D0F
:1021530008CA27CA09CB37CB193CD3808013F6189A
:10216300E4B67F11F618B6FF0EF618C60470D2084F
:1021730008768080CAF618F618F680C5080808EABB
:10218300C0E0EBC0E086F0E7A4FA180986F0E7A404
:102193002AFA180986F0E7A42AFA180986F0E7A4B0
:1021A3002AFA1986F0E7A4FBE5F02AFA190886F063
:1021B300E7A42BFBE5F03AFA190886F0E7A42BFB1A
:1021C300E5F03AFA18180986F0E7A4C5F02BFBE40A
:1021D3003AFA1908E7C5F0C6A426F6E5F03BFBE496
:1021E3003AFA1886F0E7A4F6E5F00826F6E43B0889
:1021F300F6E43A08F6D0E0FBD0E0FA22E4CFC0E000
:10220300E4CEC0E0E4CDC0E0E4CCC0E075F020C390
:10221300E633F608E633F608E633F608E633F6184F
:102223001818EC33FCED33FDEE33FEEF33FFC3EC54
:102233009709ED9709EE9709EF97191919400FFFC1
:10224300EC97FC09ED97FD09EE97FE191906D5F0F9
:10225300BEECF709EDF709EEF709EFF7191919D0F5
:10226300E0FCD0E0FDD0E0FED0E0FF22181818E437
:10227300C396F608E496F608E496F608E496F62282
:102283006016080808C6C313C618C613C618C613B3
:10229300C618C613C6D5E0EA2270090808082260EA
:1022A30016181818C6C333C608C633C608C633C6BD
:1022B30008C633C6D5E0EA22E627F60809E637F66C
:1022C3000809E637F60809E637F622E026F608A3FA
:1022D300E036F608A3E036F608A3E036F622E02659
:1022E300F008A3E036F008A3E036F008A3E036F0E8
:1022F30022C3E697F60809E697F60809E697F60873
:1023030009E697F622C3E0C696F608A3E0C696F65A
:1023130008A3E0C696F608A3E0C696F622C3E096A5
:10232300F008A3E096F008A3E096F008A3E096F087
:1023330022E657F60809E657F60809E657F60809AC
:10234300E657F622E056F608A3E056F608A3E05651
:10235300F608A3E056F622E056F008A3E056F0088C
:10236300A3E056F008A3E056F022E066F608A3E0E7
:1023730066F608A3E066F608A3E066F622E0F60830
:10238300A3E0F608A3E0F608A3E0F622E6F008A32C
:10239300E6F008A3E6F008A3E6F022E0FAA3E0FBE8
:1023A300A3E0FCA3E0FD22EAF0A3EBF0A3ECF0A38F
:1023B300EDF022CAC0E0E6F0A308DAFAD0E0FA2290
:1023C300CAC0E0E0A3C582CCC582C583CDC583F076
:1023D300A3C582CCC582C583CDC583DAE6D0E0CA66
:1023E30022C3E498F8E499F91224258026C3E49AD9
:1023F300FAE49BFBE920E7E9122425E498F8E49941
:10240300F922C3E498F8E499F9122425E498F8E44E
:1024130099F9C3E49AFAE49BFB22EB20E7CFE92086
:10242300E7E0B90010BB0008E88AF084F8AAF022BC
:10243300E4FBC8FA22EB70227B10C833C8C933C946
:10244300335007C39AC3DBF280069A50012ADBEAB2
:10245300C833F4C8C933F4C9FA2275F008E4C833A1
:10246300C8C933C933C99AC99B5004C92AC93BD5C2
:10247300F0ECFBC833F4C8E4C9FA22600D08C6A225
:10248300E713C618C613C6D5E0F322600C08C6C30B
:1024930013C618C613C6D5E0F422700422600D18C3
:1024A300C6C333C608C633C6D5E0F41822251810B0
:1024B300AF08F518400215198008F51840021519E0
:1024C300D2AF22C0D0251810AF08F5185002051955
:1024D3008008F51850020519D2AFD0D0222518F57F
:1024E3008210AF08F518400215198008F51840024C
:1024F3001519D2AF851983222518F582E43519F50C
:102503008322E4732518C582C0E0E51934FFC5832F
:10251300C0E0E518C3958224F810AF0885831985B8
:1025230082188008858319858218D2AFCEF0A3E57F
:1025330020F0A37808E608F0A3DEFAEFF0A3E58124
:1025430024FAF8E608F0A3E608F0A3E608F0A308E7
:1025530008E608F0A3E608F0A315811581D0E0FE94
:10256300D0E0F8158115811581E8C0E0EEC0E022C6
:102573002518C582C0E0E51934FFC583C0E0E5181E
:10258300C3958224F910AF088583198582188008C2
:10259300858319858218D2AFCEF0A3E520F0A37806
:1025A30008E608F0A3DEFAEFF0A3E58124FBF8E6E2
:1025B30008F0A3E608F0A30808E608F0A3E608F08D
:1025C300A315811581D0E0FED0E0F815811581E8CF
:1025D300C0E0EEC0E022851983851882E0A3FEE007
:1025E300A3F5207808E0A3F608DFFAE0A3FFE0A351
:1025F300C0E0E0A3C0E0E0A3C0E0E0A3C0E0E0A34C
:10260300C0E010AF08858218858319800885821879
:10261300858319D2AFD083D08202012285198385A5
:102623001882E0A3FEE0A3F5207808E0A3F608DF14
:10263300FAE0A3FFE0A3C0E0E0A3C0E0E0A3C0E0B2
:10264300E0A3C0E010AF0885821885831980088550
:102653008218858319D2AFD083D08222C0D02518A7
:10266300C582C0E0E51934FFC583C0E0E518C39512
:102673008224F310AF088583198582188008858327
:1026830019858218D2AFC8F0A3E9F0A3EAF0A3EB4F
:10269300F0A37908E709F0A3D8FAECF0A3EDF0A3CF
:1026A300EEF0A3EFF0A3D0E0F0A3D0E0F0A3D0E0EE
:1026B300F0A3E520F0A3E5F0F0A3228519838518A4
:1026C30082E0C0E0A3E0F9A3E0FAA3E0FBA378086B
:1026D300E0F608A3DFFAE0FCA3E0FDA3E0FEA3E03D
:1026E300FFA3E0C0E0A3E0C0E0A3E0F5D0A3E0F5E2
:1026F30020A3E0A3F5F010AF088583198582188025
:1027030008858319858218D2AFD082D083D0E0F8B0
:10271300D0E03274048006740280027401C0E0F4D5
:10272300041224E0D0E01223B6227404800474025D
:102733008000CCC0E0EDC0E0E518C39CCCAD1950DF
:10274300011D10AF068C188D1980068C188D19D2B7
:10275300AF1223C3D0E0FDD0E0FC22D083D082E9C6
:10276300C0E0E493A3C386F0C5F095F0F908E493C1
:10277300A386F0C5F095F0700BE493A3C3994005CD
:10278300E9048002A3E475F002A42582F582E5F052
:102793003583F583D0E0F9E493A3C0E0E493C0E08C
:1027A30022D083D082ECC0E0EDC0E0E493A3FCE44C
:1027B30093A3FDED4C600D1227F0EC24FFFCED34E8
:1027C300FFFD80EFE493A3FCE493A3FDED4C600DC8
:1027D30012282FEC24FFFCED34FFFD80EFD0E0FD49
:1027E300D0E0FCE493A3C0E0E493C0E022C0E0C3E4
:1027F300E49396087401939618400FE49366700867
:1028030008740193661870007019A3A3C3E4939628
:10281300087401939618A3A3400DD0E0D0E0D0E054
:102823000227E0A3A3A3A3A3A3D0E022C0E0C0F0A8
:1028330088F0E4936670080874019366187000A822
:10284300F0A3A3700BD0F0D0E0D0E0D0E00227E0FB
:07285300A3A3D0F0D0E022A6
:10285C0074F5122573EAFEEBFFEE2434F8EF340026
:10286C00F988088909EE2435122994F8EE243712D8
:10287C002994F50AEC850AF0A4FCAAF0850AF0ED7F
:10288C00A42AFDE82CF8E43DF97A257B00122425D6
:10289C00EA850882850983F05407F87401B80002B0
:1028AC008004C333D8FCC0E0E0131313541FF8EEBC
:1028BC0028F8EF3400F9E8245DF582E93400F5835B
:1028CC00D0E0F8E0586008850882850983801DEE09
:1028DC002436122994F5F0EA84A8F0EE28F8EF34A7
:1028EC0000F9E82438F582E93400F583E0F97F0437
:1028FC0002261F74F5122573EAFEEBFFEE24341248
:10290C002994C0E0EE2435F582EF3400F583D0E055
:10291C00F08E828F83A3A3A3A3A3E0FAA3E0FB8E84
:10292C00828F83A3A3A3A3A3A3A3E0FCA3E0FDEC4A
:10293C00C39AF50AED9BF50BEE2480F508EF3400F5
:10294C00F509850882F583E06401702BEE2481F58E
:10295C0082EF3400F58312273112299D7402122460
:10296C00C6E960137CF07D07EEFAEFFB120E83854F
:10297C000882850983E4F0AC0AAD0BEEFAEFFB128A
:10298C00285C122EF00228FAF582EF3400F583E071
:10299C0022C082C083851882851983E0F8A3E0F9F0
:1029AC00C3EA9CEB9D5012C3EC98ED994019C3EA15
:1029BC0098EB99501279018010C3EA98EB9940F585
:1029CC00C3EC98ED9950EE7900D083D08222EAC303
:1029DC009CFAEB9DFB2200008521878522C622C034
:1029EC00E074EF12265F759B00906182E0A2E640D6
:1029FC0003022AACE591A2E64003022AAC7591BF12
:102A0C009004A7E06405700812108112108D8003E9
:102A1C00121087752100121105E99004A8F07900B5
:102A2C001210E7120DA57A017B009004A6E0F912B2
:102A3C001429907803E064426003022AF590087C24
:102A4C00E014F06003022AF5C2AF122A5900782A6A
:102A5C00D0E0F618D0E0F6E59F5407F97005909990
:102A6C002180039099317808122380E9C4C0E07862
:102A7C0029E65508F50808E65509F509740B780898
:102A8C0012248ED0E02508F8906270E0A2E740F89E
:102A9C00E8C333906272F0906270E0D2E0F080494B
:102AAC00E0A2E55024E591A2E5501E7591DF90045B
:102ABC00A7E0640D70139004C9E004F06428700260
:102ACC00E4F07A00E0F912119B906181E0A2E350EE
:102ADC0009E5E9A2E3500375E9F7A3E0A2E7500981
:102AEC00E591A2E7500375917F7F040226BEC0E0FA
:102AFC00C0D0C082C083906183E0A2E05009E5BFE2
:102B0C00A2E0500375BFFEE0A2E15009E5BFA2E1CF
:102B1C00500375BFFDE0A2E25009E5BFA2E25003ED
:102B2C0075BFFBE0A2E35009E5BFA2E3500375BFFC
:102B3C00F7E0A2E45009E5BFA2E4500375BFEFE053
:102B4C00A2E55009E5BFA2E5500375BFDFE0A2E6A0
:102B5C005009E5BFA2E6500375BFBFD083D082D029
:102B6C00D0D0E032C0E074F212265FE5A7A2E450A8
:102B7C000FE5A1A2E4500953A7EF75A1EF122BC4E6
:102B8C00E5A7A2E5500CE5A1A2E5500653A7DF7519
:102B9C00A1DFE5A7A2E15009E5A1A2E1500375A1CF
:102BAC00FDE5A7A2E2500CE5A1A2E2500653A7FB5B
:102BBC0075A1FB7F010226BE74F8122573752101E5
:102BCC009004A7E0640670077A007B00121069A2DB
:102BDC00AFE433FED2AF9004ADE0640170187A20FC
:102BEC007B009004A6E0F91214AD7A207B009004CF
:102BFC00A6E0F912142F906182E0D2E6F090087BE7
:102C0C00E0602185C62280169004ACE06401700857
:102C1C00E5C654F84405F5C653BEFC1229E474010C
:102C2C00652160E4EEA2E092AF7F0102261F000056
:102C3C008E238F2485822885832785188285198386
:102C4C00E0CEA3E0CF852882852783EBC9EAC8EDC7
:102C5C00CBECCA75F010C3E833C8E933C9EA33CA00
:102C6C00EB33CBC3EA9EF526EB9FF525B35004ABB3
:102C7C0025AA26EC33CCED33CDD5F0DAAE23AF2438
:102C8C002274F11225738A088B098C0A8D0B740F30
:102C9C001224FB780C1223809098E97808122347B1
:102CAC009098E9780C1223477808790C1219745013
:102CBC00157808790C1222F4909959780812199405
:102CCC00401579018013780C79081222F4909959E7
:102CDC00780C12199440EB79007F0802261F74EDD2
:102CEC001225738A088B098C0A8D0B74131224FB22
:102CFC00780C1223809098E978081223479098E971
:102D0C00780C122347780C79081219744011780842
:102D1C00790C1222F4AA08AB09AC0AAD0B8022750F
:102D2C0010007511007512007513017810790C12D2
:102D3C0022F4781079081222BBAA10AB11AC12AD98
:102D4C00137F0C02261F9098E978081223808A8240
:102D5C008B83780812235A7F0402261F74F51225E0
:102D6C00738C828D8378081223808A828B837808F7
:102D7C00122320122DBCC3E098F0A3E099122DAEC3
:102D8C00401E90992978081223808A828B837808B8
:102D9C001222E18E828F83E02420F0A3E0344EF0E7
:102DAC0080A4F08E828F83C3E09420A3E0944E2203
:102DBC00EA2404F8EB3400F9E8FEE9FF8C828D83F9
:102DCC00A3A3A3A3E0F8A3E0F98E828F832274F56A
:102DDC00122573E9FE900807E0FAA3E0FBEEC3337B
:102DEC00F8E433F9746328F582749439F583E02A96
:102DFC00F508A3E03BF509780812271A90992D12D3
:102E0C00239E122C3C74021224C68A088B098C0A4D
:102E1C008D0B74107808122283AA08AB097F040268
:102E2C00261F74F11225738A0C8B0D8C0E8D0F746A
:102E3C000F1224FBE0FAA3E0FB74111224FBE0F563
:102E4C0008A3E0F50974131224FBE0FEA3E0FF785D
:102E5C000812271AEA2401F508EB3400F509E4F509
:102E6C000AF50B780C790812217F90996978081271
:102E7C002380780C790812217FAA0CAB0DAC0EAD17
:102E8C000F122C3C74021224C68B09EA450960040B
:102E9C007A0180027A00EC2AFCED3400FDECF8EDAE
:102EAC00F97A717B0212242588088909E4F50AF560
:102EBC000B8E828F83780812238FECF8EDF97A71E0
:102ECC007B021224258A088B097405780812249D2C
:102EDC008E828F83A3A3A3A3E508F0A3E509F07F5B
:102EEC000802261FC082C083E9906000F0D083D016
:102EFC008222C0E074F212265FA2AFE433FED2AF9E
:102F0C00C2C0E5D1A2E4500653D1EF121705EEA2D0
:102F1C00E092AF7F010226BEC0E074F212265FA2DF
:102F2C00AFE433FED2AFE589A2E150031216577518
:102F3C008900C2C5EEA2E092AF7F010226BEC0E0BE
:102F4C0074F212265FA2AFE433FED2AFE58BA2E09F
:102F5C005003121657758B00C2E880D8C0E0C0D061
:102F6C00E8C0E0E5A8D2AFC2C7A2E792AFD0E0F8C4
:102F7C00D0D0D0E032C0E0C0D0E8C0E0E9C0E0C0C2
:102F8C0008C009C082C083A2AFE433F9D2AF90105D
:102F9C00FFE0F8A3E0687008539AFBA37401802645
:102FAC00C2E99010FFE0F50874012508F0747F2544
:102FBC0008F58274103400F583E0F5C19010FFE041
:102FCC00C394804002E4F0E9A2E092AFD083D082B7
:0F2FDC00D009D008D0E0F9D0E0F8D0D0D0E03262
:102FEC00FFFFFFFFFFFFFFFF74F4122507E99004BA
:102FFC00A6F01210AB907800E0C4540F5407640391
:10300C007004793F8002797F75080675090078088D
:10301C0012271A7C947D047AEA7B0712162D74020F
:10302C001224C6900494E0F47049A3E0F47044A315
:10303C00E0F4703FA3E0F4703AA3E0F47035A3E041
:10304C00F4703090780EE0900494F090780FE0904B
:10305C000495F0907810E0900496F0907811E09040
:10306C000497F0907812E0900498F0907813E09028
:10307C000499F090049A1231D9124BD19004C47473
:10308C0006F0A3740D123AA47432F0A37401F090FC
:10309C0007FB1231D99007FAE4F0900801F0A37401
:1030AC00A0123AA47403F0A37407123AA474281261
:1030BC003AA404F0A3E4F090082AF09008501231DE
:1030CC00D990084FE4F090085604123AA41231C774
:1030DC00E4F0A304F0A3123AA4123AA2F090086709
:1030EC001231D9900866E4F090086D04F0A3E41254
:1030FC0031C7123AA2F0A37405F090087774FFF070
:10310C00A3E4F0900879F090087B04F0120DB7124C
:10311C000C8512105179017A7C7B08120EFB9008F9
:10312C007CE075F01484E5F004F0790C7A9D7B0852
:10313C00120EFB120F197A009004A6E0F912147DFE
:10314C00907803E06442705E90087CE014F0705656
:10315C00C2AF12316100782AD0E0F618D0E0F6E563
:10316C009F5407F970059099218003909931780844
:10317C00122380E9C4C0E07829E65508F50808E672
:10318C005509F509740B780812248ED0E02508F83F
:10319C00906270E0A2E740F8E8C333906272F0905E
:1031AC006270E0D2E0F09004D1E4F0A3F07A80FBFE
:1031BC009004A6E0F9121429023DD11231D012313B
:1031CC00D0F0A322F0A37480F0A374022274FF1237
:1031DC003537F0A3F02274F6122507EAFEEBFFEE6A
:1031EC00A2E050439004A8E0C39480E0500FC33396
:1031FC00F8E433F9740F28F5827414800EF4C33399
:10320C00F8E433F9741D28F582741439F5831246E9
:10321C00461225057A009004A6E0F912147DEE649E
:10322C0001FAEFFB0233FE54086045900875123426
:10323C0056750800780812271E12342C12248E782A
:10324C000812271AEA243012340112273112343DA5
:10325C0012271A7508EA750907780812271A9007B9
:10326C00E9E0FD7C001234141224C6EE640880B12F
:10327C00EE5410603E750800780812271EE4F5091C
:10328C00780812271A780812271A780812271A7544
:10329C0008EA750907780812271A9007E9E0FD7CFF
:1032AC00007A007B0079021234261224C6EE6410D8
:1032BC0002322DEE54026036750800780812271E73
:1032CC00E4F509780812271A780812271A780812D8
:1032DC00271A7508EA750907780812271A12340894
:1032EC00793C1234261224C6EE640202322DEE54BE
:1032FC0004604E9004D5123456EA242AF582EB125F
:10330C004638F508780812271E12342C12248E78B1
:10331C000812271AEA242012340112273112343DE4
:10332C0012271A7508EA750907780812271A9007E8
:10333C00E9E0FD7C011234141224C6EE640402325E
:10334C002DEE54406036750800780812271EE4F5FF
:10335C0009780812271A780812271A780812271ADF
:10336C007508EA750907780812271A123408793B90
:10337C001234261224C6EE644002322DEE548060C4
:10338C002279001214779098CD12272D7A007B01A8
:10339C009004A6E0F91214A174041224C6EE648001
:1033AC0002322DEF5401600D7901121477EEFAEF11
:1033BC00640102322F9004ADE064017031EE5420B0
:1033CC00602C9004A7E024F9600314701B793F90E3
:1033DC0004D5E0FA75F006A4CAA8F028FB74D72A25
:1033EC00FA74043BFB120EADEE642002322D7A000F
:1033FC007B00023E21F582EB1248F4229007E9E0B3
:10340C00FD7C017A007B00228A828B83A3A3A3A379
:10341C00E0FA7B00790012342622120B4D7409223B
:10342C00EA2432F582EB1248F4124626740478082A
:10343C0022EA242EF582EB124A8EF508A3E0C31380
:10344C00F509E50813F508780822E0F875F006A4EC
:10345C00C8AAF0123463222AF974D728FA740439F2
:10346C00FB22C082C083C2AF121087E5E170FC75ED
:10347C00E101123AAA1210C3790712116B790112E9
:10348C00117179021210ED121123121153790012DD
:10349C00116579011211659098E112239E1210D5D5
:1034AC009007E9E41231DBA3F0900801F0A3F0A33C
:1034BC00F09008057407F09008047403F090080A63
:1034CC00E4F0900809F090082AF0900857F0900862
:1034DC006EF0120E95120FBB120EB9790012117705
:1034EC009007F074FF123537741FF0906012E4F0FF
:1034FC00A3F0906063F07521009004A7F09004A9EC
:10350C00F0A3F09007F5F09007F604F09007F7E4BD
:10351C00F09004ACF09004AD04F09004C37403F08C
:10352C0090087AE4F0D2AFF9024B90F0A3F0A3F03C
:10353C00A3F0A322C082C083900494E08A828B8380
:10354C00123F268A828B83A3123F208A828B83A30D
:10355C00A3123F1A8A828B83A3A3A3123F148A82DD
:10356C008B83A3A3A3A3F0900499E08A828B83A3FB
:10357C00A3A3A3A3024B8DC082C0838A828B83E05A
:10358C0090049A1235B9E090049B1235B9A3E090DF
:10359C00049C1235B9A3A3E090049D1235BEE090B3
:1035AC00049E1235BEA3E090049F024B8D1235C6CB
:1035BC00A3221235C6A3A3A3A322F08A828B832253
:1035CC00C082C083120DC3E9700512112379000269
:1035DC004B9074F7122507EAFEEBFF8908120DC316
:1035EC00E9702CE508600A74016508600A7912809C
:1035FC001E7C00790080047C007901EEFAEFFB124E
:10360C001129E9F8740368700479078002790002C3
:10361C003DE374F6122507740A1224FB124BC160A9
:10362C000AEC4D6006E508450970047912800F78A4
:10363C000812271A120F1374021224C67900023EC4
:10364C002174F4122507EAFEEBFF89089004A7E029
:10365C0064096014E0640A600FE0640B600AE064C3
:10366C000C6005E0640D7004790C801E120FE58B64
:10367C000BEA450B700BA908EEFAEFFB120EFB8060
:10368C00099004A9E04440F0790D023DD174F41284
:10369C002507EAFEEBFF890BEE4F6003E970047916
:1036AC0012801F750A00120EF5850A08EE2508F522
:1036BC0082EF123404E9F0050AE50AC3950B40E6E3
:1036CC007900023DD1C082C083E9F8740168700BA7
:1036DC0090087A7401F07900024B90E8700690081B
:1036EC007AE480F1791280F0F582EB124A8E640153
:1036FC002274F6122507EAFEEBFF8C088D09900464
:10370C00A7E0640C700590618E8012124A74702FC1
:10371C00124C0F74402EF58274053FF583E0F9745A
:10372C008069700A850882850983747F800E9004F5
:10373C00ABE0F8E9C398850882850983F07900022B
:10374C003E2174F7122507EAFEEBFF890874056524
:10375C0008602874136508602274146508601C7472
:10376C001565086016741A65086010742965086080
:10377C000A743B6508600479128040124A74703BED
:10378C001241A6241DF8EB3400F9EA24F7FCEB34C3
:10379C0000FDEA246A1236F47019EA246BF582EB08
:1037AC0012463864027004793A80101237CA120E2D
:1037BC007D80061237CA120E717900023DE38C82AD
:1037CC008D83E508124BCBE4F0A3F079022274E868
:1037DC0012250774FE1224B0E9851882851983F02E
:1037EC008A0C8B0D8C0A8D0B741A1224FBE0F508D5
:1037FC00EC450B6016851882851983E0C3941C5028
:10380C000AE508600B7401650860057912023A8FAD
:10381C00124A746003023A8FA80CE875F006A4C82B
:10382C00AAF02AFA75F006E50DA42AF974D728FE39
:10383C00740439FFEE2465F510EF3400F511851092
:10384C0082123A994970C4A2AFE433C0E0740112F9
:10385C0024FBD0E0F0C2AF120FE58A148B158A82DC
:10386C008B83E0F874406860177480686003023AD8
:10387C00559004D5E0650C7002E50D6003023A55D5
:10388C0012109F8A0C8B0D12109FEA650C7003EBC3
:10389C00650D7003023A55124C29E5142402F516F5
:1038AC00E5153400F5179098C9780C1222CE780CD7
:1038BC0012271685168285178312239E124B5B12D4
:1038CC0024C6E964016003023A55E508F509780954
:1038DC0012271E74011224FBE0F9AC0AAD0BEEFAB0
:1038EC00EFFB120EDD74011224C6E96003023A5597
:1038FC009007F6E064016003023A47EE241DF5825E
:10390C00EF3400123A99497003023A47124C29EEEF
:10391C00242EF508EF3400F509850882F583E0F5CF
:10392C0010A3E0F511E4F512F513780C79101222BE
:10393C00BB9098E5780C1222CE780C1227168516BF
:10394C008285178312239E124B5B1224C6E96401F5
:10395C006003023A47E5142408F50AE5153400F52E
:10396C000B850A82F58312272DAA0CAB0DAC0EAD7C
:10397C000F124B551224C6850882850983122731F4
:10398C00122C3C74021224C68A0C8B0D8C0E8D0FDB
:10399C007410780C1222838E828F83A3A3A3A3A30B
:1039AC00A3A3A3A3123C798E828F83A3A3A3A3A367
:1039BC00124679E8250CF8E9350DF98E828F83A330
:1039CC00A3A3A3A3A3A3124679850A82850B83C064
:1039DC0082C0838508828509831240CB780C7908D4
:1039EC0012217FD083D082780C1222CE9098E97865
:1039FC000C122347851682851783E50CF0A3E50D81
:103A0C00F0A3E50EF0A3E50FF0851482851583A3D2
:103A1C00A3A3A3A3A3E4F0A3F0EE2435124635C070
:103A2C00E0EE2434F582EF123404D0E0F0EEFAEF3D
:103A3C00FB1228FFAA14AB15120FC774011224FB3A
:103A4C00E0A2E092AF7900803A851082851183E57F
:103A5C000AF0A3E50BF0851882851983E0C0E0EE2F
:103A6C002463F582EF123404D0E0F0EE2464F58286
:103A7C00EF123404E508F074011224FBE0A2E0928A
:103A8C00AF790774021224C67F100225D9F583E0A2
:103A9C00F8A3E0F9E8227425F0A3E4F0A322120DB8
:103AAC008D120D8175E1F12274F3122507EAFEEBFC
:103ABC00FF8908740D1224FBE0F509740E1224FB27
:103ACC00E0F50A740F1224FB123C7974111224FBDA
:103ADC00E0F50B74121224FBE0F50CE50860387469
:103AEC00016508602274036508600674026508703D
:103AFC0068EE2460FAEF123C68505EEC2460FAED3C
:103B0C00123C6840268052E849604EE50A601C74FD
:103B1C0001650A70448014EE24E0FAEF123C5D500B
:103B2C0038EC24E0FAED123C5D502EC3EC9EED9F78
:103B3C004027E509600674016509701DE50C6012EB
:103B4C007401650C600C7402650C60067403650CE2
:103B5C0070077407550BFA70057912023C589008DF
:103B6C0001E064017005790C023C58E508900804EA
:103B7C00F0EAA3F0E50CA3F0E5099007FA7027E44E
:103B8C00F0900494E09007FB123F269007FC123F44
:103B9C00209007FD123F1A9007FE123F149007FF6A
:103BAC00F0900499802E7401F090049AE09007FB39
:103BBC00F090049BE09007FCF090049CE09007FDD3
:103BCC00F090049DE09007FEF090049EE09007FFBB
:103BDC00F090049FE0900800F074016508703CE5DB
:103BEC000A9007E9124BC7E09007EA123C7FE0907D
:103BFC0007EB123C7FA3E09007EC123C7FA3A3E001
:103C0C009007ED123C84E09007EE123C84A3E09008
:103C1C0007EFF0900802E4F0A3802EE50C70047915
:103C2C0000801C7401650C700479018012740265AB
:103C3C000C7004790280087403650C70057903120A
:103C4C00112F900802EEF0A3EFF079007F0502250A
:103C5C00D934FFFBC3EA94E1EB943F2234FFFBC35E
:103C6C00EA9461EB943F22851882851983E0F8A3CE
:103C7C00E0F922124BCBA322124BCBA3A3A3A3227A
:103C8C0074F6122507E9FEC39420400479128029AA
:103C9C00EE90080AF0601AEA4B60F1123E261227E9
:103CAC001AEAFCEBFD7A0B7B081213CF7402122478
:103CBC00C69008097401F07900023E2174F41225B3
:103CCC0007E9FE9004A7E064096014E0640A600F41
:103CDC00E0640B600AE0640C6005E0640D7005792B
:103CEC0021023DD1900804E0F8600F740168600A6D
:103CFC00740368600574026870239007FAE0F96039
:103D0C000574016970177403686005740268701299
:103D1C00900802C3E094A0A3E0940050057912022D
:103D2C003DD1EE60651470F5900801E0640160AF60
:103D3C00E860057401687008120FF1E954FD709F7A
:103D4C007901120FD99007F81240F990080174010B
:103D5C00F09004A7E0706C12409A909925780812A4
:103D6C0022CE9098E978081223479007F81240B7B2
:103D7C0012238F9007F81240ED120DC9E96006125C
:103D8C003DD6023CEB120FC18039900801E0700364
:103D9C00023CEBA2AFE433FFC2AF123DD6120FFDD3
:103DAC00E9701B1240A6E5E170FC75E1017591BF4D
:103DBC0075E1F19004ADE0640170031240D4EFA200
:103DCC00E092AF79007F040225D97AF87B07120FB5
:103DDC00DF900801E4F0227F010225D974F6122548
:103DEC0007E9FEC39420400479128029EE90082A3A
:103DFC00F0601AEA4B60F1123E2612271AEAFCEB2D
:103E0C00FD7A2B7B081213CF74021224C69008097A
:103E1C007401F079007F020225D9E0F508750900DC
:103E2C0078082274F7122507E9FE74091224FBE0C6
:103E3C00FF740A1224FBE0F508EE600574016E7045
:103E4C0028EF600574016F7020124091501BEC2418
:103E5C00FCF8ED1240965011C3EA9CEB9D400AE52C
:103E6C0008600B7401650860057912023F11900817
:103E7C0057E064017005790C023F11EEA3F0E508E0
:103E8C0090085DF0EF90084F7027E4F0900494E0F8
:103E9C00900850123F26900851123F209008521261
:103EAC003F1A900853123F14900854F090049980D4
:103EBC002E7401F090049AE0900850F090049BE06E
:103ECC00900851F090049CE0900852F090049DE012
:103EDC00900853F090049EE0900854F090049FE0FA
:103EEC00900855F09008591240F9A3ECF0A3EDF0AE
:103EFC00E508700479008008740165087005790183
:103F0C001211357900023DE3F0900498E022F09014
:103F1C000497E022F0900496E022F0900495E022C1
:103F2C0074F4122507E9FEEAFF9004A7E064096027
:103F3C0014E0640A600FE0640B600AE0640C600536
:103F4C00E0640D7005792102408E900858E0F8600D
:103F5C0005740168703A90084FE0F86005740168C8
:103F6C00702E9008591240B11240915023A3123A6E
:103F7C009B24FCFCE934FFFDC3EC94FDED943F5015
:103F8C000FC3EA98EB994008EF600A74016F600563
:103F9C00791202408EEE607C1470F5900857E06444
:103FAC000160A27902120FD990084D1240F99008C5
:103FBC00577401F0900856F0EF90085EF09004A74B
:103FCC00E0600302408C120DED12409A9098F1784B
:103FDC00081222CE9098E9780812234790084D12C7
:103FEC0040B712238F90084D1240ED90084D1246A9
:103FFC003CC082C08390085B1240CBD083D08278C7
:10400C00081222CE90084D1240BD780812238F1250
:10401C000FC1806C900857E07003023F51A2AFE4CF
:10402C0033F508C2AF7A4D7B08120FDF900857E4C6
:10403C00F0120FFDE970201240A6E5E170FC75E16D
:10404C00017591BF790112117175E1F19004ADE028
:10405C00640170031240D4E508A2E092AF90085DB1
:10406C00E0F874016870051211538014A3E0640128
:10407C00700EE8700B121123121153790112115F9B
:10408C007900023DD1EA24FCF8EB124659221210B9
:10409C00998A088B098C0A8D0B22121087906182E9
:1040AC00E0C2E6F022E0FAA3E0FB221246407808D8
:1040BC0022E0240EF8A3E03400F9888289832212CE
:1040CC004626E4F50AF50B227A207B009004A6E044
:1040DC00F91214AD7A207B009004A6E0F912142F8B
:1040EC0022124640A3A3A3A3E4F0A3F022EAF0A378
:1040FC00EBF02274F6122507EAFEEBFF8C088D0913
:10410C009004A7E064076004790C8049EC450970C1
:10411C000479128040124A74703B124AA07E008EC1
:10412C0082AC82E5082CF582E509124638C0E0C362
:10413C00E49CF895E0F9EA28F8EB124A94D0E0F008
:10414C000EEEC3941040D8EA24D41234017401F05A
:10415C0079051248DA023E2174F7122507EAFEEBC4
:10416C00FF9004A7E064076004790C802A124A745B
:10417C0070251241A624DD1236F4700DEA24F712D4
:10418C0034017406F07902800BEA24DE12340174D7
:10419C0006F0790D1248DA023DE3124AA4EA2274C1
:1041AC00E812250774FC1224B074021224FB12408E
:1041BC00F9851882851983ECF0A3EDF08915741D2F
:1041CC001224FBE0F50AA3E0F50B741F1224FBE0AC
:1041DC00F51474201224FB12462674221224FBE0E0
:1041EC00F516A3E0F51774261224FBE0FEA3E0FFFE
:1041FC0074281224FBE0F50CA3E0F50D742A1224AC
:10420C00FBE0F50EA3E0F50F90086EE0640160078B
:10421C00790412462E700579210246219004A7E0FC
:10422C00640960F3E0640A60EEE0640B60E9E0644A
:10423C000C60E4E0640D60DF74021224FB12464F44
:10424C00505685188285198312464F504B740212B2
:10425C0024FBC082C083123C73D083D082C3E0980D
:10426C00A3E0994033E51560087401651570298049
:10427C0006E50A450B6021741C1224FBE060046403
:10428C00017015E514600674016514700BC3E50E1E
:10429C00950CE50F950D50057912024621E5082481
:1042AC00FAF8E5091248D150EFE51624FAF8E517AB
:1042BC001248D150E3C3E5169508E517950940D887
:1042CC0074241224FBC3E094F4A3E0940150C912AB
:1042DC0048C350C4790112462E7012900804E0F8BD
:1042EC007003024223740168700302422379401266
:1042FC00462E7003024223851608851709E508C36C
:10430C0033F508E50933F50974241224FBE0240184
:10431C00F510A3E03400F511E4F512F51385080C43
:10432C0085090DF50EF50F7810790C12217F8E0C86
:10433C008F0D7403780C12249D780C79101219745B
:10434C0040030242A4120EB3E964017005793A02EB
:10435C0046219004D4E0605785080C85090D7AFF3E
:10436C007BFF120EA18A088B097403780812248E25
:10437C009004D4E0F8C3E50898E509940050057959
:10438C003B024621C3EA950CEB950D5010A80CA9E5
:10439C000D1224258B09EA450970E48012EAF8EB2A
:1043AC00F9AA0CAB0D1224258B09EA450970D0E54E
:1043BC00157009E50A450B70030242A4120E898A96
:1043CC00088B09A808A909E8497005790902462152
:1043DC00E82404F50CE93400F50D850C82F583E036
:1043EC00900875F074021224FB123C7990086F123D
:1043FC004679123C73900871124679E51590087451
:10440C00F07A008A82A8821248E9E0C0E0E5082828
:10441C00F8EB3400F9E8245DF582E9123404D0E0BD
:10442C00F00AEAC3940540DBE508245DFCEB34009C
:10443C00FDAA08120E83E5082436F582E50912461A
:10444C0038C39402500AAA08AB09120E8F0242A478
:10445C00850A82850B83E09007EA12466DE090078F
:10446C00EB124664E09007EC124664A3E09007ED73
:10447C0012467FE09007EE12467FA3E09007EFF024
:10448C00E514900866F07025900494E0900867128B
:10449C003F26900868123F20900869123F1A900836
:1044AC006A123F1490086BF0900499802B90049A38
:1044BC00E0900867F090049BE0900868F090049CF2
:1044CC00E0900869F090049DE090086AF090049EDA
:1044DC00E090086BF090049FE090086CF0741C1254
:1044EC0024FBE09007E9F0120EBFE5082426F582C4
:1044FC00E5091234041223AA120D2DE5082422F525
:10450C0082E5091234041223AAE508242EF582E56B
:10451C0009123404E516F0A3E517F0E5082432F58A
:10452C0082E5091248E074241224FB123C79E50858
:10453C002430F582E509124676900876E0C0E0E575
:10454C0008242AF582E509123404D0E0F0E50824A9
:10455C002BF582E5091234047402F0120EF5E9759C
:10456C00F00C84E5F02405C0E0E5082437F582E57D
:10457C0009123404D0E0F09008737425F09004D440
:10458C00E0C39402400579011210E77904120FD9A7
:10459C009008641240F990086E7401F0900864E081
:1045AC0024161240C07411F0A3740EF0900864E04D
:1045BC0024141240C07417F09004A7E07055121028
:1045CC00998A108B118C128D139098F578101222F9
:1045DC00CE9098E9781012234790086412463C78E4
:1045EC001012238F9008641240ED9008711240CB8A
:1045FC00781079081222BB9008641240BD78101212
:10460C00238F850C82850D83E0F9120DF3120DF9C1
:10461C00120FC179007404023A91E0F508A3E0F599
:10462C000922120FEBE9640122F582EF124A8E2265
:10463C0012464022124646A3A322E0F8A3E0F583DB
:10464C00888222E024FCF8A3E01246592234FFF9B8
:10465C00C3E894FDE9943F221246682212466DA3EA
:10466C0022F0850A82850B83A3221248F4E8F0A37A
:10467C00E9F022124668A3A322C082C08390086E80
:10468C00E060087904120FEBE97004790C80189043
:10469C00086EE4F0120FFDE9700B9004ADE06401BC
:1046AC0070031240D47900024B90C082C083C3EBDC
:1046BC00940F5009C3EA9403EB94004004791280E0
:1046CC0024EA75F006A4CAA8F028F875F006EBA445
:1046DC0028FB74DA2AF58274043BF583E0700479C4
:1046EC000280027900024B9074EA1225078A088B2B
:1046FC000974161224FBE0F512A3E0F513741812DA
:10470C0024FBE0F514A3E0F515741A1224FBE0FE6B
:10471C00A3E0FF9004A7E064086005790C0248BE92
:10472C00EC24FAF8ED1248D15025E51224FAF8E5FC
:10473C00131248D15019C3E5129CE5139D4010C3C8
:10474C00E51494F4E515940150051248C34005791D
:10475C00120248BE124A7460030248BEE50875F0A6
:10476C0006A4C508A8F028F875F006E509A428F5F4
:10477C000974D72508F51074043509F511E51024D2
:10478C006FF582E511124638600DE510246BF58249
:10479C00E511124638600DE5102474F582E511120E
:1047AC0036F77005793A0248BEE512C333FAE513C1
:1047BC0033FBE5142401F508E5153400F509E4F59F
:1047CC000AF50B8A0C8B0DF50EF50F7808790C1287
:1047DC00217F8E0C8F0D7403780C12249D780C792C
:1047EC0008121974400302475B9004D4E0C394028E
:1047FC0040558A088B097AFF7BFF120EA18A0A8B1F
:10480C000B7403780A12248E9004D4E0F8C3E50AE2
:10481C0098E50B94005005793B0248BEC3EA950815
:10482C00EB95095010A808A9091224258B09EA4513
:10483C000970E48012EAF8EBF9AA08AB09122425F6
:10484C008B09EA450970D0E5102477F582E5111241
:10485C0034047402F0E5102478F582E51112340466
:10486C00E4F0A3F0E5102430F582E5111248F9E5E7
:10487C00102475F582E511124676E510247AF5823E
:10488C00E511123404E512F0A3E513F0E510247CD5
:10489C00F582E511123404E514F0A3E515F0E510EA
:1048AC00247EF582E5111248E07900AA10AB1112B2
:1048BC0048DA7F0E0225D9EE24F6F8EF124C02945A
:1048CC0077E9940C22124C02947BE9940C22120E80
:1048DC00717900221248F4EEF0A3EFF02274F02864
:1048EC00F58274071248F4223400F58322124A8EA2
:1048FC002407F8A3E03400F92274F2122507EAFE2B
:10490C00EBFF8C088D09740E1224FBE0F50CA3E070
:10491C00F50D74101224FBE0F50AA3E0F50B9004DE
:10492C00A7E064086005790C024A6FEC4509600C3D
:10493C00E50C450D6006E50A450B70057912024A37
:10494C006F124A746003024A6F124C08FE74043FE3
:10495C00FFEE24E412463570257A008A82A8821272
:10496C004A83C0E0EE28F8EF3400F9E824E5F5823C
:10497C00E9123404D0E0F00AEAC3940840DDEE24D6
:10498C00E5124635A2E040057911024A6F7A008A99
:10499C0082A882E50828F582E509124638C0E0EEC7
:1049AC0028F8EF3400F9E8249CF582E9123404D09D
:1049BC00E0F00AEAC3940840D6850C82850D83E0AA
:1049CC00C0E0EE24A4F582EF123404D0E0F0850CA4
:1049DC0082850D83A3E0C0E0EE24A5F582EF1234AE
:1049EC0004D0E0F07A008A82AC82E50A2CF582E5EC
:1049FC000B124638C0E0C3E49CF895E0F9EE28F8B9
:104A0C00EF124A94D0E0F00AEAC3941040D8EE2496
:104A1C0094FAEF3400FB120F01EE2488FAEF340005
:104A2C00FB120F079004A9E04480F0EE2462124AB6
:104A3C007924D3124A7924D4124A7924DDF8EF343C
:104A4C0000F9EE2483F582EF1236F78882898370A1
:104A5C00077401F0790A8004E4F07903EEFAEFFBB5
:104A6C001248DA7F060225D9120D09E922F582EFE8
:104A7C001248F4E4F0EE2274BB28F5827404124A56
:104A8C008E223400F583E02239F9E824D2F582E94C
:104A9C001248F422124AA422124C1774D72EFA741C
:104AAC00043FFB227F080225D974F0122507124B14
:104ABC006D60167401650A60107402650A600A74F0
:104ACC0003650A60047912807DEE4F603A124B61E7
:104ADC001227168E828F8312239E124B5B1224C6D2
:104AEC00E9602B780C1227168E828F8312239E126C
:104AFC004B551224C68A0C8B0D8C0E8D0F9098F989
:104B0C00780C1219945007A90A120DB18036E50AD7
:104B1C00600B14601014601514601A801F9004A9A7
:104B2C00E0440480169004A9E04408800E9004A987
:104B3C00E0441080069004A9E04420F085088285AA
:104B4C000983E4F07900024AB0122CEA74042212B0
:104B5C002C8D740422EE24020E0EEF3400FF780C20
:104B6C0022890A8A088B09120FE58A0C8B0DAE0C70
:104B7C00AF0D124C2D8508828509837401F0E50A6E
:104B8C0022F07900D083D082020122C082C083E956
:104B9C00F890087BE07004790C800EE8600D1470BE
:104BAC00109004AC7401F0790080D99004ACE480CE
:104BBC00F5791280F4124626EA4B22124BCB22F0E6
:104BCC008882898322900494E09004A0F09004954C
:104BDC00E09004A1F0900496E09004A2F090049769
:104BEC00E09004A3F0900498E09004A4F090049951
:104BFC00E09004A5F02234FFF9C3E822124C1374A0
:104C0C00D72E22124C1322124C1722EE75F006A44A
:104C1C00CEA8F028F875F006EFA428FF22124C2D30
:104C2C00221210998A0C8B0D8C0E8D0F22C082C013
:104C3C00839061907404F0A37448F0A3E4F0906145
:104C4C00807440F09061BC7407F09061877469F0D7
:104C5C009061B67416F07900120DAB7902120DB199
:104C6C00902FECE493F46006E493F9120D87790528
:104C7C0012117D0250A8C082C083E9540FF99061D3
:104C8C0085E0696012E5C654804449F5C6E59E543A
:104C9C007F644970F8E9F053C680E59E547F70FA42
:104CAC000250A874F7122507E5A8FE53A87E120D32
:104CBC0093C2BA539AFEC289759B00C2C2120D9957
:104CCC0075A91175B905120D9FD2BA439A0174805A
:104CDC005E42A8025BCFC082C083906181E4F0A3E6
:104CEC00F0A3F00250A875E90075910075BF0002A1
:104CFC000122C082C083906181E4F0A374C0F0A350
:104D0C00E480DFC082C08374F81224B09004A9122E
:104D1C005AC6E8497003024DC69004A9E05440609D
:104D2C00237908851882851983AA82AB83120EFB1E
:104D3C00851882851983AA82AB83120AD59004A99F
:104D4C00E054BFF0E054806010790C7A9D7B08121F
:104D5C000EFB9004A9E0547FF0E0A2E0500879002B
:104D6C00124DCE54FEF0E0540260087901124DCE83
:104D7C0054FDF0E0540460087900124DD954FBF056
:104D8C00E0540860087901124DD954F7F0E0541042
:104D9C0060087902124DD954EFF0E0542060087984
:104DAC0003124DD954DFF0A3E05401600D120DBD78
:104DBC00120AE79004AAE054FEF074081224C6020A
:104DCC0050A8120DAB120ADB9004A9E022120DB10F
:104DDC00120AE19004A9E022C082C083E9600514A4
:104DEC00602A804F90619A7433F0A37455F09061EF
:104DFC00A0743AF0900879E064017009C2919004B3
:104E0C00AB7467802D9004AB7461802690619A74AA
:104E1C003FF0A3745AF09061A0747FF0900879E091
:104E2C0064017009D2919004AB747180059004AB4D
:104E3C00746AF00250A8C082C083E9600B14600D44
:104E4C0014600F1460118020902FF08015902FF1BA
:104E5C008010902FF2800B900879E0640160F39041
:104E6C002FF3E493906186F00250A874EE1225079C
:104E7C0074F41224B0851882851983AC82AD8375C5
:104E8C00839975820174041223C3902FF093F460FC
:104E9C0003025009907808E0C394025003024FE9D2
:104EAC0074041224FBAC82AD8375839875822874CC
:104EBC00081223C3F97AFF7BFF7FFF7E008982856E
:104ECC008210801874086E7003024F9E74096E7005
:104EDC0003024F9E740A6E7003024F9EE510C3339B
:104EEC00FCE433FD74041224FBE5822CF582E5838B
:104EFC003DF583E0F50EA3E0F50F8E0875090074FF
:104F0C0002780812249D74482508FC74783509FD34
:104F1C008C828D837808122380740878081222837F
:104F2C0085080C85090D8C828D837808122380747A
:104F3C00187808122283E50C4508F508E50DF509EB
:104F4C00C3E50E9508E50F95098C828D83780812C0
:104F5C0023808C828D837808122380741878084003
:104F6C0014122283E50C4508FCAD0DE50EC39CFC28
:104F7C00E50F9D800F122283E50C4508C3950EFCAE
:104F8C00E50D950FFDC3EC9AED9B5006ECFAEDFB8D
:104F9C00EEFF0EEEC394135003024ED074FF6A70F2
:104FAC000374FF6B602D8F087402780812249D74B3
:104FBC00481264C774783509F58378081223808504
:104FCC001882851983E5822510F582E583125F919D
:104FDC00E508F009E9C394045003024EC1750801B9
:104FEC00750900780812271A74021224FBAC82ADE2
:104FFC00837AFC7B0B12163374021224C6740C12C7
:10500C0024C67F0A0225D9C082C083906186E0F84D
:10501C00902FF3E493687009902FF2E493906186DB
:10502C00F09061AE7468F0A3746AF090624574FB02
:10503C00F0A304F053F4FD43FE029008797401F0E0
:10504C009061A0E0643A7004790080027901120D3D
:10505C00AB0250A8C082C083900857E0640170175F
:10506C0090085DE0F87401686009E8700AA3E064D8
:10507C00017004790C802090086EE0640170089037
:10508C000874E0640160EC900801E0640170069023
:10509C000806E070DE7900800312549AD083D08227
:1050AC00020122C082C08375E1F1900804E0604ADD
:1050BC0014600814604E146046804E120DCF900799
:1050CC00FAE0F97AFB7B071210C99098FD12239E27
:1050DC0012549312239E1210D5900805E0F9121069
:1050EC00E179011211719007F8E024161252B17493
:1050FC00FFF0A3740DF0790080A2120DD580BF12C1
:10510C000DDB80BA120DE180B5791280EB74F412CC
:10511C00250775D90D9007E9E0A2E0E4331313F8E5
:10512C0012521B484401F5D9780012522540FB78E5
:10513C0000880874EA1264C7740712522F40F27583
:10514C00E1959007E9E0F97AEA7B071210CF901409
:10515C000F745DF0A3740D1252351254A9747BF0C8
:10516C00A3740D1254BC9007F812571A7808122326
:10517C008090990D78081222CE9098E97808122325
:10518C00479007F8E0240E1252B1780812238F12C0
:10519C0052AB74131253537402F07F040225D9746A
:1051AC00F6122507125211FA8AD9780012522540AC
:1051BC00FB780080061252A01258E1E8C39940F522
:1051CC0012534112522540FB780080081264C374BC
:1051DC00081258E1E8C39940F375E19590140F74E7
:1051EC0069F0A3740D12523512523F12239E900790
:1051FC00F8E0240E1252B11223AA1252AB741212FE
:10520C005353025B5790080AE0F9740729F5D990BB
:10521C0007FAE0C4333354C022880874FB2508F520
:10522C00827407125B1D9406221256117463F0A34C
:10523C00740D221254AFF0A3747BF0A3740D1254AE
:10524C00C09099292274F61225071252114402F5C6
:10525C00D9780012522540FB780080061252A01219
:10526C0058E1E8C39940F575E19590140F1252C0BE
:10527C00F0A31252C012524212239E9007F8E0245F
:10528C000E1252B11223AA1252AB7414125353744D
:10529C0004025B598808740B2508F5827408229067
:1052AC0007F8E02414F8A3E01252B8223400F9886D
:1052BC008289832274751252CD1252CDF0A3740DD3
:1052CC0022F0A3740DF0A374752274F61225071244
:1052DC005211FA74064AF5D9780012522540FB781F
:1052EC000080061252A01258E1E8C39940F51253FF
:1052FC004112522540FB780080081264C3740812D6
:10530C0058E1E8C39940F375E19590140F746FF070
:10531C00A3740D12560A12523F12239E9007F8E006
:10532C00240E1252B11223AA1252AB7415125353FB
:10533C007403025B5990082AE0F9740729F5D974B3
:10534C00044AF5D9780022F09004A722C082C083C9
:10535C009008617425F090085F7401F0A3E4F07A72
:10536C0001FB1210F390084DE024161252B1740B8D
:10537C00F0A3740EF090085EE06401701690085D66
:10538C00E070107901121159121123121153790086
:10539C001211650250A874F612250774FA1224B083
:1053AC00900856E064017008120DE7900856E4F07E
:1053BC0075E1F190084DE024151252B17401F09092
:1053CC000858E064017053909899C08285188285C2
:1053DC001983AC82AD83758398D08274061223C373
:1053EC0075D90D90084F12521E4403F5D9780088D8
:1053FC000874501264C7740812522F40F278008857
:10540C0008851882851983E5821264C7E5831252D8
:10541C002F40EC75E1957901800279001210F9901A
:10542C00140F7497F0A3740FF0A3749DF0A3740F72
:10543C001254A01254A01254A91254B5F0A374A380
:10544C00F0A3740F1254BC90084FE0F97A507B080B
:10545C001210C990086112549A79011210FF909899
:10546C00FD12239E12549312239E1210D579001212
:10547C00117190084D1252AE74161253537405F0FC
:10548C00041224C6025B5A1211179098E122E0F91B
:10549C00122EF022F0A37497F0A3740F221254AFC3
:1054AC00F0A3221254B322F0A37467F0A3740F225A
:1054BC001254C022F090141D1254B51256151254E9
:1054CC00B51254B3F02274F41225078908A80812F7
:1054DC006345900866E0F97A677B081210C990085A
:1054EC0074E0701A790012113B9007E9E0700B79A7
:1054FC00007AEA7B071210CF8009790180F37901D9
:10550C0012113B75E1F175D92390086612521E44B5
:10551C0005F5D97800880A7467250AF58274081293
:10552C00522F40F175D90075D90075D90075D90085
:10553C0075D90075D9007A00126818242212599670
:10554C0040F67A001268182426F582E9125BD70A15
:10555C00EAC3940340EEEE242B125BD47A0012685B
:10556C0018242C12599C40F67A00126818242E121A
:10557C00599C40F67A00126818243012599C40F657
:10558C007A00126818243212599C40F67A008A0A62
:10559C00EE250AF8EF1260411259A9940540EFEE7E
:1055AC002437126286541FF8EE242A126286C43302
:1055BC0054E048F5D975E19590140F746DF0A3740F
:1055CC000FF0A37473F0A3740F12560AF0A374793E
:1055DC00F0A3740F1254BC90087312549A9098FD57
:1055EC0012239E12549312239E1210D590600DE438
:1055FC00F079011211719004A774060251A512568C
:10560C00111254B522125615221256227467F0A3A9
:10561C00740F12562222F0A37467F0A3740FF0A338
:10562C002274EC12250790086412571A7810122372
:10563C0080900875E0FAF875F006A4C8ACF02CF967
:10564C00740528F582740539F583E0FEA3E0FFEEBE
:10565C00C333FEEF33FF8E0CF50D750E00750F0086
:10566C0085100885110985120A85130B90991978F4
:10567C00081222CE78081227168510088511098584
:10568C00120A85130B7808790C1222BB7810790C4E
:10569C001221FFE4F50EF50F7808790C1222F48A2A
:1056AC000C750D007403780C12249D7808790C127B
:1056BC0022BB9098E97808122347AA08AB09AC0AD8
:1056CC00AD0B122CEA74041224C68A088B09A808A4
:1056DC00A909C3EE98EF995006E82EF8E93FF9E8CE
:1056EC0090600EF0E9A3F0EEA3F0EFA3F090600D44
:1056FC0074C1F07F0C0225D9C082C0839007F812C8
:10570C00571AA3A3A3A3E4024CEC8E828F831257E7
:10571C001E22E0F8A3E0F5838882A3A32274F7127B
:10572C00250712674AF8740439F9E82405FAE934B4
:10573C0000FB8A828B8312642788828983A3A3A3AC
:10574C00A3A3A3A3A3A3ECF0A3ED12623DE024FF5B
:10575C00F8A3E034FFF98A828B83E8F0A3E9F00226
:10576C005BCFC082C08390084D12578E90086102A7
:10577C0050A5C082C08390086412578E90087302A3
:10578C0050A512571EA3A3A3A3E4F0A3F022020179
:10579C002274F21225071258E8F50AEF125D89609F
:1057AC0004780480027800E8240EF8EAC3985003C9
:1057BC0002584675080C90087DE4F0EE24771262CE
:1057CC008690087EF07902EE2478FCEF3400FD7AA6
:1057DC007F7B08120EE97902EE247A12584B247C56
:1057EC0012584B247EFCEF3400FD120EE9EE2475AA
:1057FC001258FE850A82850B83E0601675087D754C
:10580C000908780812271A7C0C125E9D1224C675A2
:10581C00081074012508F5D975D90378008009881A
:10582C000A747D250A1258DDE8C3950840F175E12C
:10583C0095790412111D79018002790002603CFCFB
:10584C00EF3400FD120EE97902EE2274F2122507F4
:10585C001258E8F508EF3400F509850882F583E065
:10586C006004780480027800E8240AF8EAC39840BF
:10587C0055750A0890087D7401F079057CF07D0758
:10588C007A7E7B08120EE9EE24811258FE8508827E
:10589C00850983E0601675087D750908780812275C
:1058AC001A7C08125E9D1224C6750A0C125C31809B
:1058BC00031258D7E8C3950A40F775E1957904129D
:1058CC00111D79018002790002603C8808747D25E5
:1058DC0008F582740812628DF5D908221258EC2250
:1058EC00EAFEEBFF9061D0E0F87480C398FAEE24E6
:1058FC008322FCEF3400FD8E828F83A3A3A3A3A38A
:10590C00125ACA8C828D83E028F0A3E039F0790218
:10591C00120EE92274F6122507EAFEEBFF9061D015
:10592C00E0706275D91875D90375D9037A008A08A5
:10593C00EE250812681D249C125A4640F17A008A02
:10594C0008EE250812681D24A412599C40F17A0017
:10595C008A08EE250812681D2494125A4640F17AE2
:10596C00008A08EE250812681D248812599640F109
:10597C0075E1957908EE2494125A3F2488125A3610
:10598C00125B3580027900025B5A1259A2940422F0
:10599C001259A2940222F582E93400F583E0F5D97C
:1059AC000AEAC32274F6122507EAFEEBFF9061D0D7
:1059BC00E0707275D90E75D90375D9047A008A080E
:1059CC00EE250812681D248C125A4640F17A008A82
:1059DC0008EE250812681D248412599640F175E1D1
:1059EC00957908EE248C125A3F2484125A367C0086
:1059FC008C82AA82C3E49AF895E0F9EE28F8EF3984
:105A0C00F9E8248BF582E9126289C0E0EE2A12686B
:105A1C001D24AB125F8ED0E0F00CECC3940840D088
:105A2C00125B3A80027900025B5AFAEF3400FB12E7
:105A3C000EEF22125A367904EE221259A294082241
:105A4C00C082C08375D90275D90375D90575E195E6
:105A5C00EA2470F582EB125AC3EA2472F582EB1237
:105A6C005B4C0250A874F6122507EAFEEBFF900877
:105A7C007D7406125B2812271A7C017903125EA32F
:105A8C001224C675D90675D9037800125B0D40FB3C
:105A9C0075E1959004A7E064087017EE2470F58208
:105AAC00EF125AC3EE2472F582EF125F91E8F0A365
:105ABC00E9F07901025B5A12604E125ACA22E0F8E0
:105ACC00A3E0F92274F6122507EAFEEBFF9061D0F1
:105ADC00E0702A90087D740A125B2812271A7C0148
:105AEC007903125EA31224C675D90675D903780002
:105AFC00125B0D40FB75E195125B3A8002790080D8
:105B0C004D8808747D2508F5827408125B1D940578
:105B1C00223400F583E0F5D908E8C322F075087D3E
